{
  "_format": "hh-sol-artifact-1",
  "contractName": "ZetaMPIBase",
  "sourceName": "contracts/ZetaMPI.base.sol",
  "abi": [
    {
      "inputs": [
        {
          "internalType": "address",
          "name": "_zetaTokenAddress",
          "type": "address"
        },
        {
          "internalType": "address",
          "name": "_tssAddress",
          "type": "address"
        },
        {
          "internalType": "address",
          "name": "_tssAddressUpdater",
          "type": "address"
        }
      ],
      "stateMutability": "nonpayable",
      "type": "constructor"
    },
    {
      "anonymous": false,
      "inputs": [
        {
          "indexed": false,
          "internalType": "address",
          "name": "account",
          "type": "address"
        }
      ],
      "name": "Paused",
      "type": "event"
    },
    {
      "anonymous": false,
      "inputs": [
        {
          "indexed": false,
          "internalType": "address",
          "name": "account",
          "type": "address"
        }
      ],
      "name": "Unpaused",
      "type": "event"
    },
    {
      "anonymous": false,
      "inputs": [
        {
          "indexed": false,
          "internalType": "bytes",
          "name": "originSenderAddress",
          "type": "bytes"
        },
        {
          "indexed": true,
          "internalType": "uint256",
          "name": "originChainId",
          "type": "uint256"
        },
        {
          "indexed": true,
          "internalType": "address",
          "name": "destinationAddress",
          "type": "address"
        },
        {
          "indexed": false,
          "internalType": "uint256",
          "name": "zetaAmount",
          "type": "uint256"
        },
        {
          "indexed": false,
          "internalType": "bytes",
          "name": "message",
          "type": "bytes"
        },
        {
          "indexed": true,
          "internalType": "bytes32",
          "name": "internalSendHash",
          "type": "bytes32"
        }
      ],
      "name": "ZetaReceived",
      "type": "event"
    },
    {
      "anonymous": false,
      "inputs": [
        {
          "indexed": false,
          "internalType": "address",
          "name": "originSenderAddress",
          "type": "address"
        },
        {
          "indexed": false,
          "internalType": "uint256",
          "name": "originChainId",
          "type": "uint256"
        },
        {
          "indexed": true,
          "internalType": "uint256",
          "name": "destinationChainId",
          "type": "uint256"
        },
        {
          "indexed": true,
          "internalType": "bytes",
          "name": "destinationAddress",
          "type": "bytes"
        },
        {
          "indexed": false,
          "internalType": "uint256",
          "name": "zetaAmount",
          "type": "uint256"
        },
        {
          "indexed": false,
          "internalType": "bytes",
          "name": "message",
          "type": "bytes"
        },
        {
          "indexed": true,
          "internalType": "bytes32",
          "name": "internalSendHash",
          "type": "bytes32"
        }
      ],
      "name": "ZetaReverted",
      "type": "event"
    },
    {
      "anonymous": false,
      "inputs": [
        {
          "indexed": true,
          "internalType": "address",
          "name": "originSenderAddress",
          "type": "address"
        },
        {
          "indexed": false,
          "internalType": "uint256",
          "name": "destinationChainId",
          "type": "uint256"
        },
        {
          "indexed": false,
          "internalType": "bytes",
          "name": "destinationAddress",
          "type": "bytes"
        },
        {
          "indexed": false,
          "internalType": "uint256",
          "name": "zetaAmount",
          "type": "uint256"
        },
        {
          "indexed": false,
          "internalType": "uint256",
          "name": "gasLimit",
          "type": "uint256"
        },
        {
          "indexed": false,
          "internalType": "bytes",
          "name": "message",
          "type": "bytes"
        },
        {
          "indexed": false,
          "internalType": "bytes",
          "name": "zetaParams",
          "type": "bytes"
        }
      ],
      "name": "ZetaSent",
      "type": "event"
    },
    {
      "inputs": [
        {
          "internalType": "bytes",
          "name": "originSenderAddress",
          "type": "bytes"
        },
        {
          "internalType": "uint256",
          "name": "originChainId",
          "type": "uint256"
        },
        {
          "internalType": "address",
          "name": "destinationAddress",
          "type": "address"
        },
        {
          "internalType": "uint256",
          "name": "zetaAmount",
          "type": "uint256"
        },
        {
          "internalType": "bytes",
          "name": "message",
          "type": "bytes"
        },
        {
          "internalType": "bytes32",
          "name": "internalSendHash",
          "type": "bytes32"
        }
      ],
      "name": "onReceive",
      "outputs": [],
      "stateMutability": "nonpayable",
      "type": "function"
    },
    {
      "inputs": [
        {
          "internalType": "address",
          "name": "originSenderAddress",
          "type": "address"
        },
        {
          "internalType": "uint256",
          "name": "originChainId",
          "type": "uint256"
        },
        {
          "internalType": "bytes",
          "name": "destinationAddress",
          "type": "bytes"
        },
        {
          "internalType": "uint256",
          "name": "destinationChainId",
          "type": "uint256"
        },
        {
          "internalType": "uint256",
          "name": "zetaAmount",
          "type": "uint256"
        },
        {
          "internalType": "bytes",
          "name": "message",
          "type": "bytes"
        },
        {
          "internalType": "bytes32",
          "name": "internalSendHash",
          "type": "bytes32"
        }
      ],
      "name": "onRevert",
      "outputs": [],
      "stateMutability": "nonpayable",
      "type": "function"
    },
    {
      "inputs": [],
      "name": "pause",
      "outputs": [],
      "stateMutability": "nonpayable",
      "type": "function"
    },
    {
      "inputs": [],
      "name": "paused",
      "outputs": [
        {
          "internalType": "bool",
          "name": "",
          "type": "bool"
        }
      ],
      "stateMutability": "view",
      "type": "function"
    },
    {
      "inputs": [],
      "name": "renounceTssAddressUpdater",
      "outputs": [],
      "stateMutability": "nonpayable",
      "type": "function"
    },
    {
      "inputs": [
        {
          "components": [
            {
              "internalType": "uint256",
              "name": "destinationChainId",
              "type": "uint256"
            },
            {
              "internalType": "bytes",
              "name": "destinationAddress",
              "type": "bytes"
            },
            {
              "internalType": "uint256",
              "name": "gasLimit",
              "type": "uint256"
            },
            {
              "internalType": "bytes",
              "name": "message",
              "type": "bytes"
            },
            {
              "internalType": "uint256",
              "name": "zetaAmount",
              "type": "uint256"
            },
            {
              "internalType": "bytes",
              "name": "zetaParams",
              "type": "bytes"
            }
          ],
          "internalType": "struct ZetaInterfaces.SendInput",
          "name": "input",
          "type": "tuple"
        }
      ],
      "name": "send",
      "outputs": [],
      "stateMutability": "nonpayable",
      "type": "function"
    },
    {
      "inputs": [],
      "name": "tssAddress",
      "outputs": [
        {
          "internalType": "address",
          "name": "",
          "type": "address"
        }
      ],
      "stateMutability": "view",
      "type": "function"
    },
    {
      "inputs": [],
      "name": "tssAddressUpdater",
      "outputs": [
        {
          "internalType": "address",
          "name": "",
          "type": "address"
        }
      ],
      "stateMutability": "view",
      "type": "function"
    },
    {
      "inputs": [],
      "name": "unpause",
      "outputs": [],
      "stateMutability": "nonpayable",
      "type": "function"
    },
    {
      "inputs": [
        {
          "internalType": "address",
          "name": "_tssAddress",
          "type": "address"
        }
      ],
      "name": "updateTssAddress",
      "outputs": [],
      "stateMutability": "nonpayable",
      "type": "function"
    },
    {
      "inputs": [],
      "name": "zetaToken",
      "outputs": [
        {
          "internalType": "address",
          "name": "",
          "type": "address"
        }
      ],
      "stateMutability": "view",
      "type": "function"
    }
  ],
  "bytecode": "0x608060405234801561001057600080fd5b5060405162000f2338038062000f238339818101604052810190610034919061012e565b60008060006101000a81548160ff02191690831515021790555082600060016101000a81548173ffffffffffffffffffffffffffffffffffffffff021916908373ffffffffffffffffffffffffffffffffffffffff16021790555081600160006101000a81548173ffffffffffffffffffffffffffffffffffffffff021916908373ffffffffffffffffffffffffffffffffffffffff16021790555080600260006101000a81548173ffffffffffffffffffffffffffffffffffffffff021916908373ffffffffffffffffffffffffffffffffffffffff1602179055505050506101c6565b600081519050610128816101af565b92915050565b60008060006060848603121561014357600080fd5b600061015186828701610119565b935050602061016286828701610119565b925050604061017386828701610119565b9150509250925092565b60006101888261018f565b9050919050565b600073ffffffffffffffffffffffffffffffffffffffff82169050919050565b6101b88161017d565b81146101c357600080fd5b50565b610d4d80620001d66000396000f3fe608060405234801561001057600080fd5b50600436106100a95760003560e01c80635c975abb116100715780635c975abb1461012e578063779e3b631461014c5780638456cb59146101565780639122c34414610160578063942a5e161461017c578063ec02690114610198576100a9565b806321e093b1146100ae57806329dd214d146100cc578063328a01d0146100e85780633f4ba83a146101065780635b11259114610110575b600080fd5b6100b66101b4565b6040516100c39190610aef565b60405180910390f35b6100e660048036038101906100e19190610941565b6101da565b005b6100f06101e4565b6040516100fd9190610aef565b60405180910390f35b61010e61020a565b005b6101186102a4565b6040516101259190610aef565b60405180910390f35b6101366102ca565b6040516101439190610b0a565b60405180910390f35b6101546102e0565b005b61015e610467565b005b61017a60048036038101906101759190610842565b610501565b005b6101966004803603810190610191919061086b565b610645565b005b6101b260048036038101906101ad9190610a04565b610650565b005b600060019054906101000a900473ffffffffffffffffffffffffffffffffffffffff1681565b5050505050505050565b600260009054906101000a900473ffffffffffffffffffffffffffffffffffffffff1681565b600260009054906101000a900473ffffffffffffffffffffffffffffffffffffffff1673ffffffffffffffffffffffffffffffffffffffff163373ffffffffffffffffffffffffffffffffffffffff161461029a576040517f08c379a000000000000000000000000000000000000000000000000000000000815260040161029190610b45565b60405180910390fd5b6102a2610653565b565b600160009054906101000a900473ffffffffffffffffffffffffffffffffffffffff1681565b60008060009054906101000a900460ff16905090565b600260009054906101000a900473ffffffffffffffffffffffffffffffffffffffff1673ffffffffffffffffffffffffffffffffffffffff163373ffffffffffffffffffffffffffffffffffffffff1614610370576040517f08c379a000000000000000000000000000000000000000000000000000000000815260040161036790610b45565b60405180910390fd5b600073ffffffffffffffffffffffffffffffffffffffff16600160009054906101000a900473ffffffffffffffffffffffffffffffffffffffff1673ffffffffffffffffffffffffffffffffffffffff161415610402576040517f08c379a00000000000000000000000000000000000000000000000000000000081526004016103f990610b85565b60405180910390fd5b600160009054906101000a900473ffffffffffffffffffffffffffffffffffffffff16600260006101000a81548173ffffffffffffffffffffffffffffffffffffffff021916908373ffffffffffffffffffffffffffffffffffffffff160217905550565b600260009054906101000a900473ffffffffffffffffffffffffffffffffffffffff1673ffffffffffffffffffffffffffffffffffffffff163373ffffffffffffffffffffffffffffffffffffffff16146104f7576040517f08c379a00000000000000000000000000000000000000000000000000000000081526004016104ee90610b45565b60405180910390fd5b6104ff6106f4565b565b600260009054906101000a900473ffffffffffffffffffffffffffffffffffffffff1673ffffffffffffffffffffffffffffffffffffffff163373ffffffffffffffffffffffffffffffffffffffff1614610591576040517f08c379a000000000000000000000000000000000000000000000000000000000815260040161058890610b45565b60405180910390fd5b600073ffffffffffffffffffffffffffffffffffffffff168173ffffffffffffffffffffffffffffffffffffffff161415610601576040517f08c379a00000000000000000000000000000000000000000000000000000000081526004016105f890610b85565b60405180910390fd5b80600160006101000a81548173ffffffffffffffffffffffffffffffffffffffff021916908373ffffffffffffffffffffffffffffffffffffffff16021790555050565b505050505050505050565b50565b61065b6102ca565b61069a576040517f08c379a000000000000000000000000000000000000000000000000000000000815260040161069190610b25565b60405180910390fd5b60008060006101000a81548160ff0219169083151502179055507f5db9ee0a495bf2e6ff9c91a7834c1ba4fdd244a5e8aa4e537bd38aeae4b073aa6106dd610796565b6040516106ea9190610aef565b60405180910390a1565b6106fc6102ca565b1561073c576040517f08c379a000000000000000000000000000000000000000000000000000000000815260040161073390610b65565b60405180910390fd5b60016000806101000a81548160ff0219169083151502179055507f62e78cea01bee320cd4e420270b5ea74000d11b0c9f74754ebdbfc544b05a25861077f610796565b60405161078c9190610aef565b60405180910390a1565b600033905090565b6000813590506107ad81610cd2565b92915050565b6000813590506107c281610ce9565b92915050565b60008083601f8401126107da57600080fd5b8235905067ffffffffffffffff8111156107f357600080fd5b60208301915083600182028301111561080b57600080fd5b9250929050565b600060c0828403121561082457600080fd5b81905092915050565b60008135905061083c81610d00565b92915050565b60006020828403121561085457600080fd5b60006108628482850161079e565b91505092915050565b600080600080600080600080600060e08a8c03121561088957600080fd5b60006108978c828d0161079e565b99505060206108a88c828d0161082d565b98505060408a013567ffffffffffffffff8111156108c557600080fd5b6108d18c828d016107c8565b975097505060606108e48c828d0161082d565b95505060806108f58c828d0161082d565b94505060a08a013567ffffffffffffffff81111561091257600080fd5b61091e8c828d016107c8565b935093505060c06109318c828d016107b3565b9150509295985092959850929598565b60008060008060008060008060c0898b03121561095d57600080fd5b600089013567ffffffffffffffff81111561097757600080fd5b6109838b828c016107c8565b985098505060206109968b828c0161082d565b96505060406109a78b828c0161079e565b95505060606109b88b828c0161082d565b945050608089013567ffffffffffffffff8111156109d557600080fd5b6109e18b828c016107c8565b935093505060a06109f48b828c016107b3565b9150509295985092959890939650565b600060208284031215610a1657600080fd5b600082013567ffffffffffffffff811115610a3057600080fd5b610a3c84828501610812565b91505092915050565b610a4e81610bb6565b82525050565b610a5d81610bc8565b82525050565b6000610a70601483610ba5565b9150610a7b82610c08565b602082019050919050565b6000610a93603083610ba5565b9150610a9e82610c31565b604082019050919050565b6000610ab6601083610ba5565b9150610ac182610c80565b602082019050919050565b6000610ad9601b83610ba5565b9150610ae482610ca9565b602082019050919050565b6000602082019050610b046000830184610a45565b92915050565b6000602082019050610b1f6000830184610a54565b92915050565b60006020820190508181036000830152610b3e81610a63565b9050919050565b60006020820190508181036000830152610b5e81610a86565b9050919050565b60006020820190508181036000830152610b7e81610aa9565b9050919050565b60006020820190508181036000830152610b9e81610acc565b9050919050565b600082825260208201905092915050565b6000610bc182610bde565b9050919050565b60008115159050919050565b6000819050919050565b600073ffffffffffffffffffffffffffffffffffffffff82169050919050565b6000819050919050565b7f5061757361626c653a206e6f7420706175736564000000000000000000000000600082015250565b7f5a6574614d50493a206f6e6c792054535320757064617465722063616e20636160008201527f6c6c20746869732066756e6374696f6e00000000000000000000000000000000602082015250565b7f5061757361626c653a2070617573656400000000000000000000000000000000600082015250565b7f5a6574614d50493a20696e76616c696420747373416464726573730000000000600082015250565b610cdb81610bb6565b8114610ce657600080fd5b50565b610cf281610bd4565b8114610cfd57600080fd5b50565b610d0981610bfe565b8114610d1457600080fd5b5056fea26469706673582212200f5ab83a82d547743d76024c59a7a0ff2f16f7ba5abe1046ec050b7ac379c6d164736f6c63430008040033",
  "linkReferences": {},
  "deployedLinkReferences": {}
}