{
  "_format": "hh-sol-artifact-1",
  "contractName": "ZetaNonEth",
  "sourceName": "contracts/evm/ZetaNonEth.sol",
  "abi": [
    {
      "inputs": [
        {
          "internalType": "uint256",
          "name": "initialSupply",
          "type": "uint256"
        },
        {
          "internalType": "address",
          "name": "_TSSAddress",
          "type": "address"
        },
        {
          "internalType": "address",
          "name": "_TSSAddressUpdater",
          "type": "address"
        }
      ],
      "stateMutability": "nonpayable",
      "type": "constructor"
    },
    {
      "anonymous": false,
      "inputs": [
        {
          "indexed": true,
          "internalType": "address",
          "name": "owner",
          "type": "address"
        },
        {
          "indexed": true,
          "internalType": "address",
          "name": "spender",
          "type": "address"
        },
        {
          "indexed": false,
          "internalType": "uint256",
          "name": "value",
          "type": "uint256"
        }
      ],
      "name": "Approval",
      "type": "event"
    },
    {
      "anonymous": false,
      "inputs": [
        {
          "indexed": true,
          "internalType": "address",
          "name": "burnee",
          "type": "address"
        },
        {
          "indexed": false,
          "internalType": "uint256",
          "name": "amount",
          "type": "uint256"
        }
      ],
      "name": "MBurnt",
      "type": "event"
    },
    {
      "anonymous": false,
      "inputs": [
        {
          "indexed": true,
          "internalType": "address",
          "name": "mintee",
          "type": "address"
        },
        {
          "indexed": false,
          "internalType": "uint256",
          "name": "amount",
          "type": "uint256"
        },
        {
          "indexed": true,
          "internalType": "bytes32",
          "name": "internalSendHash",
          "type": "bytes32"
        }
      ],
      "name": "MMinted",
      "type": "event"
    },
    {
      "anonymous": false,
      "inputs": [
        {
          "indexed": true,
          "internalType": "address",
          "name": "from",
          "type": "address"
        },
        {
          "indexed": true,
          "internalType": "address",
          "name": "to",
          "type": "address"
        },
        {
          "indexed": false,
          "internalType": "uint256",
          "name": "value",
          "type": "uint256"
        }
      ],
      "name": "Transfer",
      "type": "event"
    },
    {
      "inputs": [],
      "name": "MPIAddress",
      "outputs": [
        {
          "internalType": "address",
          "name": "",
          "type": "address"
        }
      ],
      "stateMutability": "view",
      "type": "function"
    },
    {
      "inputs": [],
      "name": "TSSAddress",
      "outputs": [
        {
          "internalType": "address",
          "name": "",
          "type": "address"
        }
      ],
      "stateMutability": "view",
      "type": "function"
    },
    {
      "inputs": [],
      "name": "TSSAddressUpdater",
      "outputs": [
        {
          "internalType": "address",
          "name": "",
          "type": "address"
        }
      ],
      "stateMutability": "view",
      "type": "function"
    },
    {
      "inputs": [
        {
          "internalType": "address",
          "name": "owner",
          "type": "address"
        },
        {
          "internalType": "address",
          "name": "spender",
          "type": "address"
        }
      ],
      "name": "allowance",
      "outputs": [
        {
          "internalType": "uint256",
          "name": "",
          "type": "uint256"
        }
      ],
      "stateMutability": "view",
      "type": "function"
    },
    {
      "inputs": [
        {
          "internalType": "address",
          "name": "spender",
          "type": "address"
        },
        {
          "internalType": "uint256",
          "name": "amount",
          "type": "uint256"
        }
      ],
      "name": "approve",
      "outputs": [
        {
          "internalType": "bool",
          "name": "",
          "type": "bool"
        }
      ],
      "stateMutability": "nonpayable",
      "type": "function"
    },
    {
      "inputs": [
        {
          "internalType": "address",
          "name": "account",
          "type": "address"
        }
      ],
      "name": "balanceOf",
      "outputs": [
        {
          "internalType": "uint256",
          "name": "",
          "type": "uint256"
        }
      ],
      "stateMutability": "view",
      "type": "function"
    },
    {
      "inputs": [
        {
          "internalType": "uint256",
          "name": "amount",
          "type": "uint256"
        }
      ],
      "name": "burn",
      "outputs": [],
      "stateMutability": "nonpayable",
      "type": "function"
    },
    {
      "inputs": [
        {
          "internalType": "address",
          "name": "account",
          "type": "address"
        },
        {
          "internalType": "uint256",
          "name": "amount",
          "type": "uint256"
        }
      ],
      "name": "burnFrom",
      "outputs": [],
      "stateMutability": "nonpayable",
      "type": "function"
    },
    {
      "inputs": [],
      "name": "decimals",
      "outputs": [
        {
          "internalType": "uint8",
          "name": "",
          "type": "uint8"
        }
      ],
      "stateMutability": "view",
      "type": "function"
    },
    {
      "inputs": [
        {
          "internalType": "address",
          "name": "spender",
          "type": "address"
        },
        {
          "internalType": "uint256",
          "name": "subtractedValue",
          "type": "uint256"
        }
      ],
      "name": "decreaseAllowance",
      "outputs": [
        {
          "internalType": "bool",
          "name": "",
          "type": "bool"
        }
      ],
      "stateMutability": "nonpayable",
      "type": "function"
    },
    {
      "inputs": [
        {
          "internalType": "address",
          "name": "spender",
          "type": "address"
        },
        {
          "internalType": "uint256",
          "name": "addedValue",
          "type": "uint256"
        }
      ],
      "name": "increaseAllowance",
      "outputs": [
        {
          "internalType": "bool",
          "name": "",
          "type": "bool"
        }
      ],
      "stateMutability": "nonpayable",
      "type": "function"
    },
    {
      "inputs": [
        {
          "internalType": "address",
          "name": "mintee",
          "type": "address"
        },
        {
          "internalType": "uint256",
          "name": "value",
          "type": "uint256"
        },
        {
          "internalType": "bytes32",
          "name": "internalSendHash",
          "type": "bytes32"
        }
      ],
      "name": "mint",
      "outputs": [],
      "stateMutability": "nonpayable",
      "type": "function"
    },
    {
      "inputs": [],
      "name": "name",
      "outputs": [
        {
          "internalType": "string",
          "name": "",
          "type": "string"
        }
      ],
      "stateMutability": "view",
      "type": "function"
    },
    {
      "inputs": [],
      "name": "renounceTSSAddressUpdater",
      "outputs": [],
      "stateMutability": "nonpayable",
      "type": "function"
    },
    {
      "inputs": [],
      "name": "symbol",
      "outputs": [
        {
          "internalType": "string",
          "name": "",
          "type": "string"
        }
      ],
      "stateMutability": "view",
      "type": "function"
    },
    {
      "inputs": [],
      "name": "totalSupply",
      "outputs": [
        {
          "internalType": "uint256",
          "name": "",
          "type": "uint256"
        }
      ],
      "stateMutability": "view",
      "type": "function"
    },
    {
      "inputs": [
        {
          "internalType": "address",
          "name": "recipient",
          "type": "address"
        },
        {
          "internalType": "uint256",
          "name": "amount",
          "type": "uint256"
        }
      ],
      "name": "transfer",
      "outputs": [
        {
          "internalType": "bool",
          "name": "",
          "type": "bool"
        }
      ],
      "stateMutability": "nonpayable",
      "type": "function"
    },
    {
      "inputs": [
        {
          "internalType": "address",
          "name": "sender",
          "type": "address"
        },
        {
          "internalType": "address",
          "name": "recipient",
          "type": "address"
        },
        {
          "internalType": "uint256",
          "name": "amount",
          "type": "uint256"
        }
      ],
      "name": "transferFrom",
      "outputs": [
        {
          "internalType": "bool",
          "name": "",
          "type": "bool"
        }
      ],
      "stateMutability": "nonpayable",
      "type": "function"
    },
    {
      "inputs": [
        {
          "internalType": "address",
          "name": "_tss",
          "type": "address"
        },
        {
          "internalType": "address",
          "name": "_mpi",
          "type": "address"
        }
      ],
      "name": "updateTSSAndMPIAddresses",
      "outputs": [],
      "stateMutability": "nonpayable",
      "type": "function"
    }
  ],
  "bytecode": "0x60806040523480156200001157600080fd5b5060405162002a4538038062002a4583398181016040528101906200003791906200040b565b6040518060400160405280600481526020017f5a657461000000000000000000000000000000000000000000000000000000008152506040518060400160405280600481526020017f5a455441000000000000000000000000000000000000000000000000000000008152508160039080519060200190620000bb9291906200032d565b508060049080519060200190620000d49291906200032d565b5050506200011633620000ec620001a160201b60201c565b60ff16600a620000fd9190620005a1565b856200010a9190620006de565b620001aa60201b60201c565b81600560006101000a81548173ffffffffffffffffffffffffffffffffffffffff021916908373ffffffffffffffffffffffffffffffffffffffff16021790555080600660006101000a81548173ffffffffffffffffffffffffffffffffffffffff021916908373ffffffffffffffffffffffffffffffffffffffff1602179055505050506200087b565b60006012905090565b600073ffffffffffffffffffffffffffffffffffffffff168273ffffffffffffffffffffffffffffffffffffffff1614156200021d576040517f08c379a0000000000000000000000000000000000000000000000000000000008152600401620002149062000499565b60405180910390fd5b62000231600083836200032360201b60201c565b8060026000828254620002459190620004e9565b92505081905550806000808473ffffffffffffffffffffffffffffffffffffffff1673ffffffffffffffffffffffffffffffffffffffff16815260200190815260200160002060008282546200029c9190620004e9565b925050819055508173ffffffffffffffffffffffffffffffffffffffff16600073ffffffffffffffffffffffffffffffffffffffff167fddf252ad1be2c89b69c2b068fc378daa952ba7f163c4a11628f55a4df523b3ef83604051620003039190620004bb565b60405180910390a36200031f600083836200032860201b60201c565b5050565b505050565b505050565b8280546200033b906200077d565b90600052602060002090601f0160209004810192826200035f5760008555620003ab565b82601f106200037a57805160ff1916838001178555620003ab565b82800160010185558215620003ab579182015b82811115620003aa5782518255916020019190600101906200038d565b5b509050620003ba9190620003be565b5090565b5b80821115620003d9576000816000905550600101620003bf565b5090565b600081519050620003ee8162000847565b92915050565b600081519050620004058162000861565b92915050565b6000806000606084860312156200042157600080fd5b60006200043186828701620003f4565b93505060206200044486828701620003dd565b92505060406200045786828701620003dd565b9150509250925092565b600062000470601f83620004d8565b91506200047d826200081e565b602082019050919050565b620004938162000773565b82525050565b60006020820190508181036000830152620004b48162000461565b9050919050565b6000602082019050620004d2600083018462000488565b92915050565b600082825260208201905092915050565b6000620004f68262000773565b9150620005038362000773565b9250827fffffffffffffffffffffffffffffffffffffffffffffffffffffffffffffffff038211156200053b576200053a620007b3565b5b828201905092915050565b6000808291508390505b6001851115620005985780860481111562000570576200056f620007b3565b5b6001851615620005805780820291505b8081029050620005908562000811565b945062000550565b94509492505050565b6000620005ae8262000773565b9150620005bb8362000773565b9250620005ea7fffffffffffffffffffffffffffffffffffffffffffffffffffffffffffffffff8484620005f2565b905092915050565b600082620006045760019050620006d7565b81620006145760009050620006d7565b81600181146200062d576002811462000638576200066e565b6001915050620006d7565b60ff8411156200064d576200064c620007b3565b5b8360020a915084821115620006675762000666620007b3565b5b50620006d7565b5060208310610133831016604e8410600b8410161715620006a85782820a905083811115620006a257620006a1620007b3565b5b620006d7565b620006b7848484600162000546565b92509050818404811115620006d157620006d0620007b3565b5b81810290505b9392505050565b6000620006eb8262000773565b9150620006f88362000773565b9250817fffffffffffffffffffffffffffffffffffffffffffffffffffffffffffffffff0483118215151615620007345762000733620007b3565b5b828202905092915050565b60006200074c8262000753565b9050919050565b600073ffffffffffffffffffffffffffffffffffffffff82169050919050565b6000819050919050565b600060028204905060018216806200079657607f821691505b60208210811415620007ad57620007ac620007e2565b5b50919050565b7f4e487b7100000000000000000000000000000000000000000000000000000000600052601160045260246000fd5b7f4e487b7100000000000000000000000000000000000000000000000000000000600052602260045260246000fd5b60008160011c9050919050565b7f45524332303a206d696e7420746f20746865207a65726f206164647265737300600082015250565b62000852816200073f565b81146200085e57600080fd5b50565b6200086c8162000773565b81146200087857600080fd5b50565b6121ba806200088b6000396000f3fe608060405234801561001057600080fd5b50600436106101215760003560e01c806353ee30a3116100ad578063a457c2d711610071578063a457c2d71461030a578063a9059cbb1461033a578063dd62ed3e1461036a578063e2672a6e1461039a578063ed11692b146103b857610121565b806353ee30a31461026457806354b61e811461028257806370a08231146102a057806379cc6790146102d057806395d89b41146102ec57610121565b806323b872dd116100f457806323b872dd146101ae578063313ce567146101de57806339509351146101fc57806342966c681461022c5780634ebe589c1461024857610121565b806306fdde0314610126578063095ea7b31461014457806318160ddd146101745780631e458bee14610192575b600080fd5b61012e6103c2565b60405161013b9190611948565b60405180910390f35b61015e600480360381019061015991906115ff565b610454565b60405161016b919061192d565b60405180910390f35b61017c610472565b6040516101899190611b2a565b60405180910390f35b6101ac60048036038101906101a7919061163b565b61047c565b005b6101c860048036038101906101c391906115b0565b6105c2565b6040516101d5919061192d565b60405180910390f35b6101e66106ba565b6040516101f39190611b45565b60405180910390f35b610216600480360381019061021191906115ff565b6106c3565b604051610223919061192d565b60405180910390f35b6102466004803603810190610241919061168a565b61076f565b005b610262600480360381019061025d9190611574565b610783565b005b61026c610899565b6040516102799190611912565b60405180910390f35b61028a6108bf565b6040516102979190611912565b60405180910390f35b6102ba60048036038101906102b5919061154b565b6108e5565b6040516102c79190611b2a565b60405180910390f35b6102ea60048036038101906102e591906115ff565b61092d565b005b6102f46109a8565b6040516103019190611948565b60405180910390f35b610324600480360381019061031f91906115ff565b610a3a565b604051610331919061192d565b60405180910390f35b610354600480360381019061034f91906115ff565b610b25565b604051610361919061192d565b60405180910390f35b610384600480360381019061037f9190611574565b610b43565b6040516103919190611b2a565b60405180910390f35b6103a2610bca565b6040516103af9190611912565b60405180910390f35b6103c0610bf0565b005b6060600380546103d190611c98565b80601f01602080910402602001604051908101604052809291908181526020018280546103fd90611c98565b801561044a5780601f1061041f5761010080835404028352916020019161044a565b820191906000526020600020905b81548152906001019060200180831161042d57829003601f168201915b5050505050905090565b6000610468610461610d77565b8484610d7f565b6001905092915050565b6000600254905090565b600560009054906101000a900473ffffffffffffffffffffffffffffffffffffffff1673ffffffffffffffffffffffffffffffffffffffff163373ffffffffffffffffffffffffffffffffffffffff1614806105255750600760009054906101000a900473ffffffffffffffffffffffffffffffffffffffff1673ffffffffffffffffffffffffffffffffffffffff163373ffffffffffffffffffffffffffffffffffffffff16145b610564576040517f08c379a000000000000000000000000000000000000000000000000000000000815260040161055b906119aa565b60405180910390fd5b61056e8383610f4a565b808373ffffffffffffffffffffffffffffffffffffffff167f2d42962a04b107a0b9ba6b72003c24ca066f0948b24dc2b5504a38461e6884ca846040516105b59190611b2a565b60405180910390a3505050565b60006105cf8484846110aa565b6000600160008673ffffffffffffffffffffffffffffffffffffffff1673ffffffffffffffffffffffffffffffffffffffff168152602001908152602001600020600061061a610d77565b73ffffffffffffffffffffffffffffffffffffffff1673ffffffffffffffffffffffffffffffffffffffff1681526020019081526020016000205490508281101561069a576040517f08c379a000000000000000000000000000000000000000000000000000000000815260040161069190611a4a565b60405180910390fd5b6106ae856106a6610d77565b858403610d7f565b60019150509392505050565b60006012905090565b60006107656106d0610d77565b8484600160006106de610d77565b73ffffffffffffffffffffffffffffffffffffffff1673ffffffffffffffffffffffffffffffffffffffff16815260200190815260200160002060008873ffffffffffffffffffffffffffffffffffffffff1673ffffffffffffffffffffffffffffffffffffffff168152602001908152602001600020546107609190611b7c565b610d7f565b6001905092915050565b61078061077a610d77565b8261132b565b50565b600660009054906101000a900473ffffffffffffffffffffffffffffffffffffffff1673ffffffffffffffffffffffffffffffffffffffff163373ffffffffffffffffffffffffffffffffffffffff1614610813576040517f08c379a000000000000000000000000000000000000000000000000000000000815260040161080a9061196a565b60405180910390fd5b81600560006101000a81548173ffffffffffffffffffffffffffffffffffffffff021916908373ffffffffffffffffffffffffffffffffffffffff16021790555080600760006101000a81548173ffffffffffffffffffffffffffffffffffffffff021916908373ffffffffffffffffffffffffffffffffffffffff1602179055505050565b600560009054906101000a900473ffffffffffffffffffffffffffffffffffffffff1681565b600660009054906101000a900473ffffffffffffffffffffffffffffffffffffffff1681565b60008060008373ffffffffffffffffffffffffffffffffffffffff1673ffffffffffffffffffffffffffffffffffffffff168152602001908152602001600020549050919050565b60006109408361093b610d77565b610b43565b905081811015610985576040517f08c379a000000000000000000000000000000000000000000000000000000000815260040161097c90611a6a565b60405180910390fd5b61099983610991610d77565b848403610d7f565b6109a3838361132b565b505050565b6060600480546109b790611c98565b80601f01602080910402602001604051908101604052809291908181526020018280546109e390611c98565b8015610a305780601f10610a0557610100808354040283529160200191610a30565b820191906000526020600020905b815481529060010190602001808311610a1357829003601f168201915b5050505050905090565b60008060016000610a49610d77565b73ffffffffffffffffffffffffffffffffffffffff1673ffffffffffffffffffffffffffffffffffffffff16815260200190815260200160002060008573ffffffffffffffffffffffffffffffffffffffff1673ffffffffffffffffffffffffffffffffffffffff16815260200190815260200160002054905082811015610b06576040517f08c379a0000000000000000000000000000000000000000000000000000000008152600401610afd90611aea565b60405180910390fd5b610b1a610b11610d77565b85858403610d7f565b600191505092915050565b6000610b39610b32610d77565b84846110aa565b6001905092915050565b6000600160008473ffffffffffffffffffffffffffffffffffffffff1673ffffffffffffffffffffffffffffffffffffffff16815260200190815260200160002060008373ffffffffffffffffffffffffffffffffffffffff1673ffffffffffffffffffffffffffffffffffffffff16815260200190815260200160002054905092915050565b600760009054906101000a900473ffffffffffffffffffffffffffffffffffffffff1681565b600660009054906101000a900473ffffffffffffffffffffffffffffffffffffffff1673ffffffffffffffffffffffffffffffffffffffff163373ffffffffffffffffffffffffffffffffffffffff1614610c80576040517f08c379a0000000000000000000000000000000000000000000000000000000008152600401610c779061196a565b60405180910390fd5b600073ffffffffffffffffffffffffffffffffffffffff16600560009054906101000a900473ffffffffffffffffffffffffffffffffffffffff1673ffffffffffffffffffffffffffffffffffffffff161415610d12576040517f08c379a0000000000000000000000000000000000000000000000000000000008152600401610d099061198a565b60405180910390fd5b600560009054906101000a900473ffffffffffffffffffffffffffffffffffffffff16600660006101000a81548173ffffffffffffffffffffffffffffffffffffffff021916908373ffffffffffffffffffffffffffffffffffffffff160217905550565b600033905090565b600073ffffffffffffffffffffffffffffffffffffffff168373ffffffffffffffffffffffffffffffffffffffff161415610def576040517f08c379a0000000000000000000000000000000000000000000000000000000008152600401610de690611aca565b60405180910390fd5b600073ffffffffffffffffffffffffffffffffffffffff168273ffffffffffffffffffffffffffffffffffffffff161415610e5f576040517f08c379a0000000000000000000000000000000000000000000000000000000008152600401610e5690611a0a565b60405180910390fd5b80600160008573ffffffffffffffffffffffffffffffffffffffff1673ffffffffffffffffffffffffffffffffffffffff16815260200190815260200160002060008473ffffffffffffffffffffffffffffffffffffffff1673ffffffffffffffffffffffffffffffffffffffff168152602001908152602001600020819055508173ffffffffffffffffffffffffffffffffffffffff168373ffffffffffffffffffffffffffffffffffffffff167f8c5be1e5ebec7d5bd14f71427d1e84f3dd0314c0f7b2291e5b200ac8c7c3b92583604051610f3d9190611b2a565b60405180910390a3505050565b600073ffffffffffffffffffffffffffffffffffffffff168273ffffffffffffffffffffffffffffffffffffffff161415610fba576040517f08c379a0000000000000000000000000000000000000000000000000000000008152600401610fb190611b0a565b60405180910390fd5b610fc660008383611502565b8060026000828254610fd89190611b7c565b92505081905550806000808473ffffffffffffffffffffffffffffffffffffffff1673ffffffffffffffffffffffffffffffffffffffff168152602001908152602001600020600082825461102d9190611b7c565b925050819055508173ffffffffffffffffffffffffffffffffffffffff16600073ffffffffffffffffffffffffffffffffffffffff167fddf252ad1be2c89b69c2b068fc378daa952ba7f163c4a11628f55a4df523b3ef836040516110929190611b2a565b60405180910390a36110a660008383611507565b5050565b600073ffffffffffffffffffffffffffffffffffffffff168373ffffffffffffffffffffffffffffffffffffffff16141561111a576040517f08c379a000000000000000000000000000000000000000000000000000000000815260040161111190611aaa565b60405180910390fd5b600073ffffffffffffffffffffffffffffffffffffffff168273ffffffffffffffffffffffffffffffffffffffff16141561118a576040517f08c379a0000000000000000000000000000000000000000000000000000000008152600401611181906119ca565b60405180910390fd5b611195838383611502565b60008060008573ffffffffffffffffffffffffffffffffffffffff1673ffffffffffffffffffffffffffffffffffffffff1681526020019081526020016000205490508181101561121b576040517f08c379a000000000000000000000000000000000000000000000000000000000815260040161121290611a2a565b60405180910390fd5b8181036000808673ffffffffffffffffffffffffffffffffffffffff1673ffffffffffffffffffffffffffffffffffffffff16815260200190815260200160002081905550816000808573ffffffffffffffffffffffffffffffffffffffff1673ffffffffffffffffffffffffffffffffffffffff16815260200190815260200160002060008282546112ae9190611b7c565b925050819055508273ffffffffffffffffffffffffffffffffffffffff168473ffffffffffffffffffffffffffffffffffffffff167fddf252ad1be2c89b69c2b068fc378daa952ba7f163c4a11628f55a4df523b3ef846040516113129190611b2a565b60405180910390a3611325848484611507565b50505050565b600073ffffffffffffffffffffffffffffffffffffffff168273ffffffffffffffffffffffffffffffffffffffff16141561139b576040517f08c379a000000000000000000000000000000000000000000000000000000000815260040161139290611a8a565b60405180910390fd5b6113a782600083611502565b60008060008473ffffffffffffffffffffffffffffffffffffffff1673ffffffffffffffffffffffffffffffffffffffff1681526020019081526020016000205490508181101561142d576040517f08c379a0000000000000000000000000000000000000000000000000000000008152600401611424906119ea565b60405180910390fd5b8181036000808573ffffffffffffffffffffffffffffffffffffffff1673ffffffffffffffffffffffffffffffffffffffff1681526020019081526020016000208190555081600260008282546114849190611bd2565b92505081905550600073ffffffffffffffffffffffffffffffffffffffff168373ffffffffffffffffffffffffffffffffffffffff167fddf252ad1be2c89b69c2b068fc378daa952ba7f163c4a11628f55a4df523b3ef846040516114e99190611b2a565b60405180910390a36114fd83600084611507565b505050565b505050565b505050565b60008135905061151b8161213f565b92915050565b60008135905061153081612156565b92915050565b6000813590506115458161216d565b92915050565b60006020828403121561155d57600080fd5b600061156b8482850161150c565b91505092915050565b6000806040838503121561158757600080fd5b60006115958582860161150c565b92505060206115a68582860161150c565b9150509250929050565b6000806000606084860312156115c557600080fd5b60006115d38682870161150c565b93505060206115e48682870161150c565b92505060406115f586828701611536565b9150509250925092565b6000806040838503121561161257600080fd5b60006116208582860161150c565b925050602061163185828601611536565b9150509250929050565b60008060006060848603121561165057600080fd5b600061165e8682870161150c565b935050602061166f86828701611536565b925050604061168086828701611521565b9150509250925092565b60006020828403121561169c57600080fd5b60006116aa84828501611536565b91505092915050565b6116bc81611c06565b82525050565b6116cb81611c18565b82525050565b60006116dc82611b60565b6116e68185611b6b565b93506116f6818560208601611c65565b6116ff81611d28565b840191505092915050565b6000611717602b83611b6b565b915061172282611d39565b604082019050919050565b600061173a601e83611b6b565b915061174582611d88565b602082019050919050565b600061175d603283611b6b565b915061176882611db1565b604082019050919050565b6000611780602383611b6b565b915061178b82611e00565b604082019050919050565b60006117a3602283611b6b565b91506117ae82611e4f565b604082019050919050565b60006117c6602283611b6b565b91506117d182611e9e565b604082019050919050565b60006117e9602683611b6b565b91506117f482611eed565b604082019050919050565b600061180c602883611b6b565b915061181782611f3c565b604082019050919050565b600061182f602483611b6b565b915061183a82611f8b565b604082019050919050565b6000611852602183611b6b565b915061185d82611fda565b604082019050919050565b6000611875602583611b6b565b915061188082612029565b604082019050919050565b6000611898602483611b6b565b91506118a382612078565b604082019050919050565b60006118bb602583611b6b565b91506118c6826120c7565b604082019050919050565b60006118de601f83611b6b565b91506118e982612116565b602082019050919050565b6118fd81611c4e565b82525050565b61190c81611c58565b82525050565b600060208201905061192760008301846116b3565b92915050565b600060208201905061194260008301846116c2565b92915050565b6000602082019050818103600083015261196281846116d1565b905092915050565b600060208201905081810360008301526119838161170a565b9050919050565b600060208201905081810360008301526119a38161172d565b9050919050565b600060208201905081810360008301526119c381611750565b9050919050565b600060208201905081810360008301526119e381611773565b9050919050565b60006020820190508181036000830152611a0381611796565b9050919050565b60006020820190508181036000830152611a23816117b9565b9050919050565b60006020820190508181036000830152611a43816117dc565b9050919050565b60006020820190508181036000830152611a63816117ff565b9050919050565b60006020820190508181036000830152611a8381611822565b9050919050565b60006020820190508181036000830152611aa381611845565b9050919050565b60006020820190508181036000830152611ac381611868565b9050919050565b60006020820190508181036000830152611ae38161188b565b9050919050565b60006020820190508181036000830152611b03816118ae565b9050919050565b60006020820190508181036000830152611b23816118d1565b9050919050565b6000602082019050611b3f60008301846118f4565b92915050565b6000602082019050611b5a6000830184611903565b92915050565b600081519050919050565b600082825260208201905092915050565b6000611b8782611c4e565b9150611b9283611c4e565b9250827fffffffffffffffffffffffffffffffffffffffffffffffffffffffffffffffff03821115611bc757611bc6611cca565b5b828201905092915050565b6000611bdd82611c4e565b9150611be883611c4e565b925082821015611bfb57611bfa611cca565b5b828203905092915050565b6000611c1182611c2e565b9050919050565b60008115159050919050565b6000819050919050565b600073ffffffffffffffffffffffffffffffffffffffff82169050919050565b6000819050919050565b600060ff82169050919050565b60005b83811015611c83578082015181840152602081019050611c68565b83811115611c92576000848401525b50505050565b60006002820490506001821680611cb057607f821691505b60208210811415611cc457611cc3611cf9565b5b50919050565b7f4e487b7100000000000000000000000000000000000000000000000000000000600052601160045260246000fd5b7f4e487b7100000000000000000000000000000000000000000000000000000000600052602260045260246000fd5b6000601f19601f8301169050919050565b7f5a6574614e6f6e4574683a2073656e646572206973206e6f742054535341646460008201527f7265737355706461746572000000000000000000000000000000000000000000602082015250565b7f5a6574614e6f6e4574683a20496e76616c696420545353416464726573730000600082015250565b7f5a6574614e6f6e4574683a206f6e6c792054535341646472657373206f72204d60008201527f5049416464726573732063616e206d696e740000000000000000000000000000602082015250565b7f45524332303a207472616e7366657220746f20746865207a65726f206164647260008201527f6573730000000000000000000000000000000000000000000000000000000000602082015250565b7f45524332303a206275726e20616d6f756e7420657863656564732062616c616e60008201527f6365000000000000000000000000000000000000000000000000000000000000602082015250565b7f45524332303a20617070726f766520746f20746865207a65726f20616464726560008201527f7373000000000000000000000000000000000000000000000000000000000000602082015250565b7f45524332303a207472616e7366657220616d6f756e742065786365656473206260008201527f616c616e63650000000000000000000000000000000000000000000000000000602082015250565b7f45524332303a207472616e7366657220616d6f756e742065786365656473206160008201527f6c6c6f77616e6365000000000000000000000000000000000000000000000000602082015250565b7f45524332303a206275726e20616d6f756e74206578636565647320616c6c6f7760008201527f616e636500000000000000000000000000000000000000000000000000000000602082015250565b7f45524332303a206275726e2066726f6d20746865207a65726f2061646472657360008201527f7300000000000000000000000000000000000000000000000000000000000000602082015250565b7f45524332303a207472616e736665722066726f6d20746865207a65726f20616460008201527f6472657373000000000000000000000000000000000000000000000000000000602082015250565b7f45524332303a20617070726f76652066726f6d20746865207a65726f2061646460008201527f7265737300000000000000000000000000000000000000000000000000000000602082015250565b7f45524332303a2064656372656173656420616c6c6f77616e63652062656c6f7760008201527f207a65726f000000000000000000000000000000000000000000000000000000602082015250565b7f45524332303a206d696e7420746f20746865207a65726f206164647265737300600082015250565b61214881611c06565b811461215357600080fd5b50565b61215f81611c24565b811461216a57600080fd5b50565b61217681611c4e565b811461218157600080fd5b5056fea2646970667358221220a773afafa22a650ae40c2cd38ef1f012045848c853c6ee88afaa72887c7c648164736f6c63430008040033",
  "linkReferences": {},
  "deployedLinkReferences": {}
}