{
  "_format": "hh-sol-artifact-1",
  "contractName": "ERC20Custody",
  "sourceName": "contracts/ERC20Custody.sol",
  "abi": [
    {
      "inputs": [
        {
          "internalType": "address",
          "name": "TSSAddress_",
          "type": "address"
        },
        {
          "internalType": "address",
          "name": "TSSAddressUpdater_",
          "type": "address"
        },
        {
          "internalType": "uint256",
          "name": "zetaFee_",
          "type": "uint256"
        },
        {
          "internalType": "uint256",
          "name": "zetaMaxFee_",
          "type": "uint256"
        },
        {
          "internalType": "contract IERC20",
          "name": "zeta_",
          "type": "address"
        }
      ],
      "stateMutability": "nonpayable",
      "type": "constructor"
    },
    {
      "inputs": [],
      "name": "InvalidSender",
      "type": "error"
    },
    {
      "inputs": [],
      "name": "InvalidTSSUpdater",
      "type": "error"
    },
    {
      "inputs": [],
      "name": "IsPaused",
      "type": "error"
    },
    {
      "inputs": [],
      "name": "NotPaused",
      "type": "error"
    },
    {
      "inputs": [],
      "name": "NotWhitelisted",
      "type": "error"
    },
    {
      "inputs": [],
      "name": "ZeroAddress",
      "type": "error"
    },
    {
      "inputs": [],
      "name": "ZeroFee",
      "type": "error"
    },
    {
      "inputs": [],
      "name": "ZetaMaxFeeExceeded",
      "type": "error"
    },
    {
      "anonymous": false,
      "inputs": [
        {
          "indexed": false,
          "internalType": "bytes",
          "name": "recipient",
          "type": "bytes"
        },
        {
          "indexed": true,
          "internalType": "contract IERC20",
          "name": "asset",
          "type": "address"
        },
        {
          "indexed": false,
          "internalType": "uint256",
          "name": "amount",
          "type": "uint256"
        },
        {
          "indexed": false,
          "internalType": "bytes",
          "name": "message",
          "type": "bytes"
        }
      ],
      "name": "Deposited",
      "type": "event"
    },
    {
      "anonymous": false,
      "inputs": [
        {
          "indexed": false,
          "internalType": "address",
          "name": "sender",
          "type": "address"
        }
      ],
      "name": "Paused",
      "type": "event"
    },
    {
      "anonymous": false,
      "inputs": [
        {
          "indexed": false,
          "internalType": "address",
          "name": "TSSAddressUpdater_",
          "type": "address"
        }
      ],
      "name": "RenouncedTSSUpdater",
      "type": "event"
    },
    {
      "anonymous": false,
      "inputs": [
        {
          "indexed": false,
          "internalType": "address",
          "name": "sender",
          "type": "address"
        }
      ],
      "name": "Unpaused",
      "type": "event"
    },
    {
      "anonymous": false,
      "inputs": [
        {
          "indexed": true,
          "internalType": "contract IERC20",
          "name": "asset",
          "type": "address"
        }
      ],
      "name": "Unwhitelisted",
      "type": "event"
    },
    {
      "anonymous": false,
      "inputs": [
        {
          "indexed": false,
          "internalType": "address",
          "name": "TSSAddress_",
          "type": "address"
        }
      ],
      "name": "UpdatedTSSAddress",
      "type": "event"
    },
    {
      "anonymous": false,
      "inputs": [
        {
          "indexed": false,
          "internalType": "uint256",
          "name": "zetaFee_",
          "type": "uint256"
        }
      ],
      "name": "UpdatedZetaFee",
      "type": "event"
    },
    {
      "anonymous": false,
      "inputs": [
        {
          "indexed": true,
          "internalType": "contract IERC20",
          "name": "asset",
          "type": "address"
        }
      ],
      "name": "Whitelisted",
      "type": "event"
    },
    {
      "anonymous": false,
      "inputs": [
        {
          "indexed": true,
          "internalType": "address",
          "name": "recipient",
          "type": "address"
        },
        {
          "indexed": true,
          "internalType": "contract IERC20",
          "name": "asset",
          "type": "address"
        },
        {
          "indexed": false,
          "internalType": "uint256",
          "name": "amount",
          "type": "uint256"
        }
      ],
      "name": "Withdrawn",
      "type": "event"
    },
    {
      "inputs": [],
      "name": "TSSAddress",
      "outputs": [
        {
          "internalType": "address",
          "name": "",
          "type": "address"
        }
      ],
      "stateMutability": "view",
      "type": "function"
    },
    {
      "inputs": [],
      "name": "TSSAddressUpdater",
      "outputs": [
        {
          "internalType": "address",
          "name": "",
          "type": "address"
        }
      ],
      "stateMutability": "view",
      "type": "function"
    },
    {
      "inputs": [
        {
          "internalType": "bytes",
          "name": "recipient",
          "type": "bytes"
        },
        {
          "internalType": "contract IERC20",
          "name": "asset",
          "type": "address"
        },
        {
          "internalType": "uint256",
          "name": "amount",
          "type": "uint256"
        },
        {
          "internalType": "bytes",
          "name": "message",
          "type": "bytes"
        }
      ],
      "name": "deposit",
      "outputs": [],
      "stateMutability": "nonpayable",
      "type": "function"
    },
    {
      "inputs": [],
      "name": "pause",
      "outputs": [],
      "stateMutability": "nonpayable",
      "type": "function"
    },
    {
      "inputs": [],
      "name": "paused",
      "outputs": [
        {
          "internalType": "bool",
          "name": "",
          "type": "bool"
        }
      ],
      "stateMutability": "view",
      "type": "function"
    },
    {
      "inputs": [],
      "name": "renounceTSSAddressUpdater",
      "outputs": [],
      "stateMutability": "nonpayable",
      "type": "function"
    },
    {
      "inputs": [],
      "name": "unpause",
      "outputs": [],
      "stateMutability": "nonpayable",
      "type": "function"
    },
    {
      "inputs": [
        {
          "internalType": "contract IERC20",
          "name": "asset",
          "type": "address"
        }
      ],
      "name": "unwhitelist",
      "outputs": [],
      "stateMutability": "nonpayable",
      "type": "function"
    },
    {
      "inputs": [
        {
          "internalType": "address",
          "name": "TSSAddress_",
          "type": "address"
        }
      ],
      "name": "updateTSSAddress",
      "outputs": [],
      "stateMutability": "nonpayable",
      "type": "function"
    },
    {
      "inputs": [
        {
          "internalType": "uint256",
          "name": "zetaFee_",
          "type": "uint256"
        }
      ],
      "name": "updateZetaFee",
      "outputs": [],
      "stateMutability": "nonpayable",
      "type": "function"
    },
    {
      "inputs": [
        {
          "internalType": "contract IERC20",
          "name": "asset",
          "type": "address"
        }
      ],
      "name": "whitelist",
      "outputs": [],
      "stateMutability": "nonpayable",
      "type": "function"
    },
    {
      "inputs": [
        {
          "internalType": "contract IERC20",
          "name": "",
          "type": "address"
        }
      ],
      "name": "whitelisted",
      "outputs": [
        {
          "internalType": "bool",
          "name": "",
          "type": "bool"
        }
      ],
      "stateMutability": "view",
      "type": "function"
    },
    {
      "inputs": [
        {
          "internalType": "address",
          "name": "recipient",
          "type": "address"
        },
        {
          "internalType": "contract IERC20",
          "name": "asset",
          "type": "address"
        },
        {
          "internalType": "uint256",
          "name": "amount",
          "type": "uint256"
        }
      ],
      "name": "withdraw",
      "outputs": [],
      "stateMutability": "nonpayable",
      "type": "function"
    },
    {
      "inputs": [],
      "name": "zeta",
      "outputs": [
        {
          "internalType": "contract IERC20",
          "name": "",
          "type": "address"
        }
      ],
      "stateMutability": "view",
      "type": "function"
    },
    {
      "inputs": [],
      "name": "zetaFee",
      "outputs": [
        {
          "internalType": "uint256",
          "name": "",
          "type": "uint256"
        }
      ],
      "stateMutability": "view",
      "type": "function"
    },
    {
      "inputs": [],
      "name": "zetaMaxFee",
      "outputs": [
        {
          "internalType": "uint256",
          "name": "",
          "type": "uint256"
        }
      ],
      "stateMutability": "view",
      "type": "function"
    }
  ],
  "bytecode": "0x60c06040523480156200001157600080fd5b5060405162001bf138038062001bf183398181016040528101906200003791906200014f565b84600060016101000a81548173ffffffffffffffffffffffffffffffffffffffff021916908373ffffffffffffffffffffffffffffffffffffffff16021790555083600160006101000a81548173ffffffffffffffffffffffffffffffffffffffff021916908373ffffffffffffffffffffffffffffffffffffffff160217905550826002819055508073ffffffffffffffffffffffffffffffffffffffff1660a08173ffffffffffffffffffffffffffffffffffffffff1660601b81525050816080818152505050505050506200027c565b6000815190506200011b816200022e565b92915050565b600081519050620001328162000248565b92915050565b600081519050620001498162000262565b92915050565b600080600080600060a086880312156200016e576200016d62000229565b5b60006200017e888289016200010a565b955050602062000191888289016200010a565b9450506040620001a48882890162000138565b9350506060620001b78882890162000138565b9250506080620001ca8882890162000121565b9150509295509295909350565b6000620001e482620001ff565b9050919050565b6000620001f882620001d7565b9050919050565b600073ffffffffffffffffffffffffffffffffffffffff82169050919050565b6000819050919050565b600080fd5b6200023981620001d7565b81146200024557600080fd5b50565b6200025381620001eb565b81146200025f57600080fd5b50565b6200026d816200021f565b81146200027957600080fd5b50565b60805160a05160601c611937620002ba60003960008181610e6001528181610e9f015261118301526000818161042b0152610cd101526119376000f3fe608060405234801561001057600080fd5b50600436106101005760003560e01c80639b19251a11610097578063e5408cfa11610066578063e5408cfa1461024d578063e609055e1461026b578063e8f9cb3a14610287578063ed11692b146102a557610100565b80639b19251a146101c9578063d936547e146101e5578063d9caed1214610215578063de2f6c5e1461023157610100565b80637bdaded3116100d35780637bdaded3146101695780638456cb5914610187578063950837aa146101915780639a590427146101ad57610100565b80633f4ba83a1461010557806353ee30a31461010f57806354b61e811461012d5780635c975abb1461014b575b600080fd5b61010d6102af565b005b6101176103cc565b6040516101249190611653565b60405180910390f35b6101356103f2565b6040516101429190611653565b60405180910390f35b610153610418565b60405161016091906116ce565b60405180910390f35b610171610429565b60405161017e919061174d565b60405180910390f35b61018f61044d565b005b6101ab60048036038101906101a6919061140f565b6105f4565b005b6101c760048036038101906101c29190611563565b61075c565b005b6101e360048036038101906101de9190611563565b610881565b005b6101ff60048036038101906101fa9190611563565b6109a6565b60405161020c91906116ce565b60405180910390f35b61022f600480360381019061022a919061143c565b6109c6565b005b61024b60048036038101906102469190611590565b610c0d565b005b610255610d6a565b604051610262919061174d565b60405180910390f35b610285600480360381019061028091906114bc565b610d70565b005b61028f611181565b60405161029c9190611732565b60405180910390f35b6102ad6111a5565b005b600160009054906101000a900473ffffffffffffffffffffffffffffffffffffffff1673ffffffffffffffffffffffffffffffffffffffff163373ffffffffffffffffffffffffffffffffffffffff1614610335576040517e611fa600000000000000000000000000000000000000000000000000000000815260040160405180910390fd5b60008054906101000a900460ff16610379576040517f6cd6020100000000000000000000000000000000000000000000000000000000815260040160405180910390fd5b60008060006101000a81548160ff0219169083151502179055507f5db9ee0a495bf2e6ff9c91a7834c1ba4fdd244a5e8aa4e537bd38aeae4b073aa336040516103c29190611653565b60405180910390a1565b600060019054906101000a900473ffffffffffffffffffffffffffffffffffffffff1681565b600160009054906101000a900473ffffffffffffffffffffffffffffffffffffffff1681565b60008054906101000a900460ff1681565b7f000000000000000000000000000000000000000000000000000000000000000081565b600160009054906101000a900473ffffffffffffffffffffffffffffffffffffffff1673ffffffffffffffffffffffffffffffffffffffff163373ffffffffffffffffffffffffffffffffffffffff16146104d3576040517e611fa600000000000000000000000000000000000000000000000000000000815260040160405180910390fd5b60008054906101000a900460ff1615610518576040517f1309a56300000000000000000000000000000000000000000000000000000000815260040160405180910390fd5b600073ffffffffffffffffffffffffffffffffffffffff16600060019054906101000a900473ffffffffffffffffffffffffffffffffffffffff1673ffffffffffffffffffffffffffffffffffffffff1614156105a1576040517fd92e233d00000000000000000000000000000000000000000000000000000000815260040160405180910390fd5b60016000806101000a81548160ff0219169083151502179055507f62e78cea01bee320cd4e420270b5ea74000d11b0c9f74754ebdbfc544b05a258336040516105ea9190611653565b60405180910390a1565b600160009054906101000a900473ffffffffffffffffffffffffffffffffffffffff1673ffffffffffffffffffffffffffffffffffffffff163373ffffffffffffffffffffffffffffffffffffffff161461067a576040517e611fa600000000000000000000000000000000000000000000000000000000815260040160405180910390fd5b600073ffffffffffffffffffffffffffffffffffffffff168173ffffffffffffffffffffffffffffffffffffffff1614156106e1576040517fd92e233d00000000000000000000000000000000000000000000000000000000815260040160405180910390fd5b80600060016101000a81548173ffffffffffffffffffffffffffffffffffffffff021916908373ffffffffffffffffffffffffffffffffffffffff1602179055507fcd2958db8285a532edf298cbe1aa28ea3fb5ec82461253f9a8c1477924e29947816040516107519190611653565b60405180910390a150565b600060019054906101000a900473ffffffffffffffffffffffffffffffffffffffff1673ffffffffffffffffffffffffffffffffffffffff163373ffffffffffffffffffffffffffffffffffffffff16146107e3576040517fddb5de5e00000000000000000000000000000000000000000000000000000000815260040160405180910390fd5b6000600360008373ffffffffffffffffffffffffffffffffffffffff1673ffffffffffffffffffffffffffffffffffffffff16815260200190815260200160002060006101000a81548160ff0219169083151502179055508073ffffffffffffffffffffffffffffffffffffffff167f51085ddf9ebdded84b76e829eb58c4078e4b5bdf97d9a94723f336039da4679160405160405180910390a250565b600060019054906101000a900473ffffffffffffffffffffffffffffffffffffffff1673ffffffffffffffffffffffffffffffffffffffff163373ffffffffffffffffffffffffffffffffffffffff1614610908576040517fddb5de5e00000000000000000000000000000000000000000000000000000000815260040160405180910390fd5b6001600360008373ffffffffffffffffffffffffffffffffffffffff1673ffffffffffffffffffffffffffffffffffffffff16815260200190815260200160002060006101000a81548160ff0219169083151502179055508073ffffffffffffffffffffffffffffffffffffffff167faab7954e9d246b167ef88aeddad35209ca2489d95a8aeb59e288d9b19fae5a5460405160405180910390a250565b60036020528060005260406000206000915054906101000a900460ff1681565b600060019054906101000a900473ffffffffffffffffffffffffffffffffffffffff1673ffffffffffffffffffffffffffffffffffffffff163373ffffffffffffffffffffffffffffffffffffffff1614610a4d576040517fddb5de5e00000000000000000000000000000000000000000000000000000000815260040160405180910390fd5b60008054906101000a900460ff1615610a92576040517f1309a56300000000000000000000000000000000000000000000000000000000815260040160405180910390fd5b600360008373ffffffffffffffffffffffffffffffffffffffff1673ffffffffffffffffffffffffffffffffffffffff16815260200190815260200160002060009054906101000a900460ff16610b15576040517f584a793800000000000000000000000000000000000000000000000000000000815260040160405180910390fd5b8173ffffffffffffffffffffffffffffffffffffffff1663a9059cbb84836040518363ffffffff1660e01b8152600401610b509291906116a5565b602060405180830381600087803b158015610b6a57600080fd5b505af1158015610b7e573d6000803e3d6000fd5b505050506040513d601f19601f82011682018060405250810190610ba2919061148f565b508173ffffffffffffffffffffffffffffffffffffffff168373ffffffffffffffffffffffffffffffffffffffff167fd1c19fbcd4551a5edfb66d43d2e337c04837afda3482b42bdf569a8fccdae5fb83604051610c00919061174d565b60405180910390a3505050565b600060019054906101000a900473ffffffffffffffffffffffffffffffffffffffff1673ffffffffffffffffffffffffffffffffffffffff163373ffffffffffffffffffffffffffffffffffffffff1614610c94576040517fddb5de5e00000000000000000000000000000000000000000000000000000000815260040160405180910390fd5b6000811415610ccf576040517faf13986d00000000000000000000000000000000000000000000000000000000815260040160405180910390fd5b7f0000000000000000000000000000000000000000000000000000000000000000811115610d29576040517fc1be451300000000000000000000000000000000000000000000000000000000815260040160405180910390fd5b806002819055507f6d2d8e313fbaf76898bb9fa55e4b52525e49c7d7182d0874f97bd9076e81d52381604051610d5f919061174d565b60405180910390a150565b60025481565b60008054906101000a900460ff1615610db5576040517f1309a56300000000000000000000000000000000000000000000000000000000815260040160405180910390fd5b600360008573ffffffffffffffffffffffffffffffffffffffff1673ffffffffffffffffffffffffffffffffffffffff16815260200190815260200160002060009054906101000a900460ff16610e38576040517f584a793800000000000000000000000000000000000000000000000000000000815260040160405180910390fd5b600060025414158015610e985750600073ffffffffffffffffffffffffffffffffffffffff167f000000000000000000000000000000000000000000000000000000000000000073ffffffffffffffffffffffffffffffffffffffff1614155b15610f72577f000000000000000000000000000000000000000000000000000000000000000073ffffffffffffffffffffffffffffffffffffffff166323b872dd33600060019054906101000a900473ffffffffffffffffffffffffffffffffffffffff166002546040518463ffffffff1660e01b8152600401610f1e9392919061166e565b602060405180830381600087803b158015610f3857600080fd5b505af1158015610f4c573d6000803e3d6000fd5b505050506040513d601f19601f82011682018060405250810190610f70919061148f565b505b60008473ffffffffffffffffffffffffffffffffffffffff166370a08231306040518263ffffffff1660e01b8152600401610fad9190611653565b60206040518083038186803b158015610fc557600080fd5b505afa158015610fd9573d6000803e3d6000fd5b505050506040513d601f19601f82011682018060405250810190610ffd91906115bd565b90508473ffffffffffffffffffffffffffffffffffffffff166323b872dd3330876040518463ffffffff1660e01b815260040161103c9392919061166e565b602060405180830381600087803b15801561105657600080fd5b505af115801561106a573d6000803e3d6000fd5b505050506040513d601f19601f8201168201806040525081019061108e919061148f565b508473ffffffffffffffffffffffffffffffffffffffff167f1dafa057cc5c3bccb5ad974129a2bccd3c74002d9dfd7062404ba9523b18d6ae8888848973ffffffffffffffffffffffffffffffffffffffff166370a08231306040518263ffffffff1660e01b81526004016111039190611653565b60206040518083038186803b15801561111b57600080fd5b505afa15801561112f573d6000803e3d6000fd5b505050506040513d601f19601f8201168201806040525081019061115391906115bd565b61115d9190611779565b87876040516111709594939291906116e9565b60405180910390a250505050505050565b7f000000000000000000000000000000000000000000000000000000000000000081565b600160009054906101000a900473ffffffffffffffffffffffffffffffffffffffff1673ffffffffffffffffffffffffffffffffffffffff163373ffffffffffffffffffffffffffffffffffffffff161461122b576040517e611fa600000000000000000000000000000000000000000000000000000000815260040160405180910390fd5b600073ffffffffffffffffffffffffffffffffffffffff16600060019054906101000a900473ffffffffffffffffffffffffffffffffffffffff1673ffffffffffffffffffffffffffffffffffffffff1614156112b4576040517fd92e233d00000000000000000000000000000000000000000000000000000000815260040160405180910390fd5b600060019054906101000a900473ffffffffffffffffffffffffffffffffffffffff16600160006101000a81548173ffffffffffffffffffffffffffffffffffffffff021916908373ffffffffffffffffffffffffffffffffffffffff1602179055507f39ac266bfc011581be62c138d96e4e8782812013bb66fffb4cd207f4bfee3777336040516113469190611653565b60405180910390a1565b60008135905061135f816118a5565b92915050565b600081519050611374816118bc565b92915050565b60008083601f8401126113905761138f611880565b5b8235905067ffffffffffffffff8111156113ad576113ac61187b565b5b6020830191508360018202830111156113c9576113c8611885565b5b9250929050565b6000813590506113df816118d3565b92915050565b6000813590506113f4816118ea565b92915050565b600081519050611409816118ea565b92915050565b6000602082840312156114255761142461188f565b5b600061143384828501611350565b91505092915050565b6000806000606084860312156114555761145461188f565b5b600061146386828701611350565b9350506020611474868287016113d0565b9250506040611485868287016113e5565b9150509250925092565b6000602082840312156114a5576114a461188f565b5b60006114b384828501611365565b91505092915050565b600080600080600080608087890312156114d9576114d861188f565b5b600087013567ffffffffffffffff8111156114f7576114f661188a565b5b61150389828a0161137a565b9650965050602061151689828a016113d0565b945050604061152789828a016113e5565b935050606087013567ffffffffffffffff8111156115485761154761188a565b5b61155489828a0161137a565b92509250509295509295509295565b6000602082840312156115795761157861188f565b5b6000611587848285016113d0565b91505092915050565b6000602082840312156115a6576115a561188f565b5b60006115b4848285016113e5565b91505092915050565b6000602082840312156115d3576115d261188f565b5b60006115e1848285016113fa565b91505092915050565b6115f3816117ad565b82525050565b611602816117bf565b82525050565b60006116148385611768565b935061162183858461183d565b61162a83611894565b840190509392505050565b61163e81611807565b82525050565b61164d816117fd565b82525050565b600060208201905061166860008301846115ea565b92915050565b600060608201905061168360008301866115ea565b61169060208301856115ea565b61169d6040830184611644565b949350505050565b60006040820190506116ba60008301856115ea565b6116c76020830184611644565b9392505050565b60006020820190506116e360008301846115f9565b92915050565b60006060820190508181036000830152611704818789611608565b90506117136020830186611644565b8181036040830152611726818486611608565b90509695505050505050565b60006020820190506117476000830184611635565b92915050565b60006020820190506117626000830184611644565b92915050565b600082825260208201905092915050565b6000611784826117fd565b915061178f836117fd565b9250828210156117a2576117a161184c565b5b828203905092915050565b60006117b8826117dd565b9050919050565b60008115159050919050565b60006117d6826117ad565b9050919050565b600073ffffffffffffffffffffffffffffffffffffffff82169050919050565b6000819050919050565b600061181282611819565b9050919050565b60006118248261182b565b9050919050565b6000611836826117dd565b9050919050565b82818337600083830152505050565b7f4e487b7100000000000000000000000000000000000000000000000000000000600052601160045260246000fd5b600080fd5b600080fd5b600080fd5b600080fd5b600080fd5b6000601f19601f8301169050919050565b6118ae816117ad565b81146118b957600080fd5b50565b6118c5816117bf565b81146118d057600080fd5b50565b6118dc816117cb565b81146118e757600080fd5b50565b6118f3816117fd565b81146118fe57600080fd5b5056fea2646970667358221220609c0dba85766835e03db62b6b3126c773f1f033fe41eb56ed4ea5b8a2243ca664736f6c63430008070033",
  "linkReferences": {},
  "deployedLinkReferences": {}
}