{
  "_format": "hh-sol-artifact-1",
  "contractName": "ERC20Custody",
  "sourceName": "contracts/ERC20Custody.sol",
  "abi": [
    {
      "inputs": [
        {
          "internalType": "address",
          "name": "_TSSAddress",
          "type": "address"
        },
        {
          "internalType": "address",
          "name": "_TSSAddressUpdater",
          "type": "address"
        },
        {
          "internalType": "uint256",
          "name": "_zetaFee",
          "type": "uint256"
        },
        {
          "internalType": "contract IERC20",
          "name": "_zeta",
          "type": "address"
        }
      ],
      "stateMutability": "nonpayable",
      "type": "constructor"
    },
    {
      "inputs": [],
      "name": "InvalidSender",
      "type": "error"
    },
    {
      "inputs": [],
      "name": "InvalidTSSUpdater",
      "type": "error"
    },
    {
      "inputs": [],
      "name": "IsPaused",
      "type": "error"
    },
    {
      "inputs": [],
      "name": "NotPaused",
      "type": "error"
    },
    {
      "inputs": [],
      "name": "NotWhitelisted",
      "type": "error"
    },
    {
      "inputs": [],
      "name": "ZeroAddress",
      "type": "error"
    },
    {
      "inputs": [],
      "name": "ZeroFee",
      "type": "error"
    },
    {
      "anonymous": false,
      "inputs": [
        {
          "indexed": false,
          "internalType": "bytes",
          "name": "recipient",
          "type": "bytes"
        },
        {
          "indexed": false,
          "internalType": "contract IERC20",
          "name": "asset",
          "type": "address"
        },
        {
          "indexed": false,
          "internalType": "uint256",
          "name": "amount",
          "type": "uint256"
        },
        {
          "indexed": false,
          "internalType": "bytes",
          "name": "message",
          "type": "bytes"
        }
      ],
      "name": "Deposited",
      "type": "event"
    },
    {
      "anonymous": false,
      "inputs": [
        {
          "indexed": false,
          "internalType": "address",
          "name": "sender",
          "type": "address"
        }
      ],
      "name": "Paused",
      "type": "event"
    },
    {
      "anonymous": false,
      "inputs": [
        {
          "indexed": false,
          "internalType": "address",
          "name": "sender",
          "type": "address"
        }
      ],
      "name": "Unpaused",
      "type": "event"
    },
    {
      "anonymous": false,
      "inputs": [
        {
          "indexed": false,
          "internalType": "contract IERC20",
          "name": "asset",
          "type": "address"
        }
      ],
      "name": "Unwhitelisted",
      "type": "event"
    },
    {
      "anonymous": false,
      "inputs": [
        {
          "indexed": false,
          "internalType": "contract IERC20",
          "name": "asset",
          "type": "address"
        }
      ],
      "name": "Whitelisted",
      "type": "event"
    },
    {
      "anonymous": false,
      "inputs": [
        {
          "indexed": false,
          "internalType": "address",
          "name": "recipient",
          "type": "address"
        },
        {
          "indexed": false,
          "internalType": "contract IERC20",
          "name": "asset",
          "type": "address"
        },
        {
          "indexed": false,
          "internalType": "uint256",
          "name": "amount",
          "type": "uint256"
        }
      ],
      "name": "Withdrawn",
      "type": "event"
    },
    {
      "inputs": [],
      "name": "TSSAddress",
      "outputs": [
        {
          "internalType": "address",
          "name": "",
          "type": "address"
        }
      ],
      "stateMutability": "view",
      "type": "function"
    },
    {
      "inputs": [],
      "name": "TSSAddressUpdater",
      "outputs": [
        {
          "internalType": "address",
          "name": "",
          "type": "address"
        }
      ],
      "stateMutability": "view",
      "type": "function"
    },
    {
      "inputs": [
        {
          "internalType": "bytes",
          "name": "recipient",
          "type": "bytes"
        },
        {
          "internalType": "contract IERC20",
          "name": "asset",
          "type": "address"
        },
        {
          "internalType": "uint256",
          "name": "amount",
          "type": "uint256"
        },
        {
          "internalType": "bytes",
          "name": "message",
          "type": "bytes"
        }
      ],
      "name": "deposit",
      "outputs": [],
      "stateMutability": "nonpayable",
      "type": "function"
    },
    {
      "inputs": [],
      "name": "pause",
      "outputs": [],
      "stateMutability": "nonpayable",
      "type": "function"
    },
    {
      "inputs": [],
      "name": "paused",
      "outputs": [
        {
          "internalType": "bool",
          "name": "",
          "type": "bool"
        }
      ],
      "stateMutability": "view",
      "type": "function"
    },
    {
      "inputs": [],
      "name": "renounceTSSAddressUpdater",
      "outputs": [],
      "stateMutability": "nonpayable",
      "type": "function"
    },
    {
      "inputs": [],
      "name": "unpause",
      "outputs": [],
      "stateMutability": "nonpayable",
      "type": "function"
    },
    {
      "inputs": [
        {
          "internalType": "contract IERC20",
          "name": "asset",
          "type": "address"
        }
      ],
      "name": "unwhitelist",
      "outputs": [],
      "stateMutability": "nonpayable",
      "type": "function"
    },
    {
      "inputs": [
        {
          "internalType": "address",
          "name": "_address",
          "type": "address"
        }
      ],
      "name": "updateTSSAddress",
      "outputs": [],
      "stateMutability": "nonpayable",
      "type": "function"
    },
    {
      "inputs": [
        {
          "internalType": "uint256",
          "name": "_zetaFee",
          "type": "uint256"
        }
      ],
      "name": "updateZetaFee",
      "outputs": [],
      "stateMutability": "nonpayable",
      "type": "function"
    },
    {
      "inputs": [
        {
          "internalType": "contract IERC20",
          "name": "asset",
          "type": "address"
        }
      ],
      "name": "whitelist",
      "outputs": [],
      "stateMutability": "nonpayable",
      "type": "function"
    },
    {
      "inputs": [
        {
          "internalType": "contract IERC20",
          "name": "",
          "type": "address"
        }
      ],
      "name": "whitelisted",
      "outputs": [
        {
          "internalType": "bool",
          "name": "",
          "type": "bool"
        }
      ],
      "stateMutability": "view",
      "type": "function"
    },
    {
      "inputs": [
        {
          "internalType": "address",
          "name": "recipient",
          "type": "address"
        },
        {
          "internalType": "contract IERC20",
          "name": "asset",
          "type": "address"
        },
        {
          "internalType": "uint256",
          "name": "amount",
          "type": "uint256"
        }
      ],
      "name": "withdraw",
      "outputs": [],
      "stateMutability": "nonpayable",
      "type": "function"
    },
    {
      "inputs": [],
      "name": "zeta",
      "outputs": [
        {
          "internalType": "contract IERC20",
          "name": "",
          "type": "address"
        }
      ],
      "stateMutability": "view",
      "type": "function"
    },
    {
      "inputs": [],
      "name": "zetaFee",
      "outputs": [
        {
          "internalType": "uint256",
          "name": "",
          "type": "uint256"
        }
      ],
      "stateMutability": "view",
      "type": "function"
    }
  ],
  "bytecode": "0x60a060405234801561001057600080fd5b50604051610c81380380610c8183398101604081905261002f91610096565b60008054600180546001600160a01b0319166001600160a01b039687161790556002939093559083166080526001600160a81b0319909116610100939092169290920260ff19161790556100eb565b6001600160a01b038116811461009357600080fd5b50565b600080600080608085870312156100ac57600080fd5b84516100b78161007e565b60208601519094506100c88161007e565b6040860151606087015191945092506100e08161007e565b939692955090935050565b608051610b6d610114600039600081816102220152818161071d01526107830152610b6d6000f3fe608060405234801561001057600080fd5b50600436106100f55760003560e01c80639b19251a11610097578063e5408cfa11610066578063e5408cfa146101f3578063e609055e1461020a578063e8f9cb3a1461021d578063ed11692b1461024457600080fd5b80639b19251a14610197578063d936547e146101aa578063d9caed12146101cd578063de2f6c5e146101e057600080fd5b80635c975abb116100d35780635c975abb1461014c5780638456cb5914610169578063950837aa146101715780639a5904271461018457600080fd5b80633f4ba83a146100fa57806353ee30a31461010457806354b61e8114610139575b600080fd5b61010261024c565b005b60005461011c9061010090046001600160a01b031681565b6040516001600160a01b0390911681526020015b60405180910390f35b60015461011c906001600160a01b031681565b6000546101599060ff1681565b6040519015158152602001610130565b6101026102d9565b61010261017f36600461094d565b610392565b61010261019236600461094d565b61040b565b6101026101a536600461094d565b610493565b6101596101b836600461094d565b60036020526000908152604090205460ff1681565b6101026101db366004610971565b610517565b6101026101ee3660046109b2565b610668565b6101fc60025481565b604051908152602001610130565b610102610218366004610a14565b6106be565b61011c7f000000000000000000000000000000000000000000000000000000000000000081565b6101026108b3565b60005460ff1661026f57604051636cd6020160e01b815260040160405180910390fd5b6001546001600160a01b031633146102995760405162308fd360e11b815260040160405180910390fd5b6000805460ff191690556040513381527f5db9ee0a495bf2e6ff9c91a7834c1ba4fdd244a5e8aa4e537bd38aeae4b073aa906020015b60405180910390a1565b60005460ff16156102fd57604051631309a56360e01b815260040160405180910390fd5b6001546001600160a01b031633146103275760405162308fd360e11b815260040160405180910390fd5b60005461010090046001600160a01b03166103555760405163d92e233d60e01b815260040160405180910390fd5b6000805460ff191660011790556040513381527f62e78cea01bee320cd4e420270b5ea74000d11b0c9f74754ebdbfc544b05a258906020016102cf565b6001546001600160a01b031633146103bc5760405162308fd360e11b815260040160405180910390fd5b6001600160a01b0381166103e35760405163d92e233d60e01b815260040160405180910390fd5b600080546001600160a01b0390921661010002610100600160a81b0319909216919091179055565b60005461010090046001600160a01b0316331461043b57604051636edaef2f60e11b815260040160405180910390fd5b6001600160a01b038116600081815260036020908152604091829020805460ff1916905590519182527f51085ddf9ebdded84b76e829eb58c4078e4b5bdf97d9a94723f336039da4679191015b60405180910390a150565b60005461010090046001600160a01b031633146104c357604051636edaef2f60e11b815260040160405180910390fd5b6001600160a01b038116600081815260036020908152604091829020805460ff1916600117905590519182527faab7954e9d246b167ef88aeddad35209ca2489d95a8aeb59e288d9b19fae5a549101610488565b60005460ff161561053b57604051631309a56360e01b815260040160405180910390fd5b60005461010090046001600160a01b0316331461056b57604051636edaef2f60e11b815260040160405180910390fd5b6001600160a01b03821660009081526003602052604090205460ff166105a457604051630b094f2760e31b815260040160405180910390fd5b60405163a9059cbb60e01b81526001600160a01b0384811660048301526024820183905283169063a9059cbb906044016020604051808303816000875af11580156105f3573d6000803e3d6000fd5b505050506040513d601f19601f820116820180604052508101906106179190610aa2565b50604080516001600160a01b038086168252841660208201529081018290527fd1c19fbcd4551a5edfb66d43d2e337c04837afda3482b42bdf569a8fccdae5fb9060600160405180910390a1505050565b60005461010090046001600160a01b0316331461069857604051636edaef2f60e11b815260040160405180910390fd5b806000036106b95760405163af13986d60e01b815260040160405180910390fd5b600255565b60005460ff16156106e257604051631309a56360e01b815260040160405180910390fd5b6001600160a01b03841660009081526003602052604090205460ff1661071b57604051630b094f2760e31b815260040160405180910390fd5b7f00000000000000000000000000000000000000000000000000000000000000006001600160a01b0316156107f2576000546002546040516323b872dd60e01b81523360048201526101009092046001600160a01b03908116602484015260448301919091527f000000000000000000000000000000000000000000000000000000000000000016906323b872dd906064016020604051808303816000875af11580156107cc573d6000803e3d6000fd5b505050506040513d601f19601f820116820180604052508101906107f09190610aa2565b505b6040516323b872dd60e01b8152336004820152306024820152604481018490526001600160a01b038516906323b872dd906064016020604051808303816000875af1158015610845573d6000803e3d6000fd5b505050506040513d601f19601f820116820180604052508101906108699190610aa2565b507f1dafa057cc5c3bccb5ad974129a2bccd3c74002d9dfd7062404ba9523b18d6ae8686868686866040516108a396959493929190610aed565b60405180910390a1505050505050565b6001546001600160a01b031633146108dd5760405162308fd360e11b815260040160405180910390fd5b60005461010090046001600160a01b031661090b5760405163d92e233d60e01b815260040160405180910390fd5b600054600180546101009092046001600160a01b03166001600160a01b0319909216919091179055565b6001600160a01b038116811461094a57600080fd5b50565b60006020828403121561095f57600080fd5b813561096a81610935565b9392505050565b60008060006060848603121561098657600080fd5b833561099181610935565b925060208401356109a181610935565b929592945050506040919091013590565b6000602082840312156109c457600080fd5b5035919050565b60008083601f8401126109dd57600080fd5b50813567ffffffffffffffff8111156109f557600080fd5b602083019150836020828501011115610a0d57600080fd5b9250929050565b60008060008060008060808789031215610a2d57600080fd5b863567ffffffffffffffff80821115610a4557600080fd5b610a518a838b016109cb565b909850965060208901359150610a6682610935565b9094506040880135935060608801359080821115610a8357600080fd5b50610a9089828a016109cb565b979a9699509497509295939492505050565b600060208284031215610ab457600080fd5b8151801515811461096a57600080fd5b81835281816020850137506000828201602090810191909152601f909101601f19169091010190565b608081526000610b0160808301888a610ac4565b6001600160a01b0387166020840152604083018690528281036060840152610b2a818587610ac4565b999850505050505050505056fea2646970667358221220f27aba8bda2f44d022d93b7aac0fba1793df5c0c31b1f4cf21ccff57d91fce2d64736f6c63430008110033",
  "linkReferences": {},
  "deployedLinkReferences": {}
}