{
  "_format": "hh-sol-artifact-1",
  "contractName": "ERC20Custody",
  "sourceName": "contracts/ERC20Custody.sol",
  "abi": [
    {
      "inputs": [
        {
          "internalType": "address",
          "name": "TSSAddress_",
          "type": "address"
        },
        {
          "internalType": "address",
          "name": "TSSAddressUpdater_",
          "type": "address"
        },
        {
          "internalType": "uint256",
          "name": "zetaFee_",
          "type": "uint256"
        },
        {
          "internalType": "uint256",
          "name": "zetaMaxFee_",
          "type": "uint256"
        },
        {
          "internalType": "contract IERC20",
          "name": "zeta_",
          "type": "address"
        }
      ],
      "stateMutability": "nonpayable",
      "type": "constructor"
    },
    {
      "inputs": [],
      "name": "InvalidSender",
      "type": "error"
    },
    {
      "inputs": [],
      "name": "InvalidTSSUpdater",
      "type": "error"
    },
    {
      "inputs": [],
      "name": "IsPaused",
      "type": "error"
    },
    {
      "inputs": [],
      "name": "NotPaused",
      "type": "error"
    },
    {
      "inputs": [],
      "name": "NotWhitelisted",
      "type": "error"
    },
    {
      "inputs": [],
      "name": "ZeroAddress",
      "type": "error"
    },
    {
      "inputs": [],
      "name": "ZeroFee",
      "type": "error"
    },
    {
      "inputs": [],
      "name": "ZetaMaxFeeExceeded",
      "type": "error"
    },
    {
      "anonymous": false,
      "inputs": [
        {
          "indexed": false,
          "internalType": "bytes",
          "name": "recipient",
          "type": "bytes"
        },
        {
          "indexed": true,
          "internalType": "contract IERC20",
          "name": "asset",
          "type": "address"
        },
        {
          "indexed": false,
          "internalType": "uint256",
          "name": "amount",
          "type": "uint256"
        },
        {
          "indexed": false,
          "internalType": "bytes",
          "name": "message",
          "type": "bytes"
        }
      ],
      "name": "Deposited",
      "type": "event"
    },
    {
      "anonymous": false,
      "inputs": [
        {
          "indexed": false,
          "internalType": "address",
          "name": "sender",
          "type": "address"
        }
      ],
      "name": "Paused",
      "type": "event"
    },
    {
      "anonymous": false,
      "inputs": [
        {
          "indexed": false,
          "internalType": "address",
          "name": "TSSAddressUpdater_",
          "type": "address"
        }
      ],
      "name": "RenouncedTSSUpdater",
      "type": "event"
    },
    {
      "anonymous": false,
      "inputs": [
        {
          "indexed": false,
          "internalType": "address",
          "name": "sender",
          "type": "address"
        }
      ],
      "name": "Unpaused",
      "type": "event"
    },
    {
      "anonymous": false,
      "inputs": [
        {
          "indexed": true,
          "internalType": "contract IERC20",
          "name": "asset",
          "type": "address"
        }
      ],
      "name": "Unwhitelisted",
      "type": "event"
    },
    {
      "anonymous": false,
      "inputs": [
        {
          "indexed": false,
          "internalType": "address",
          "name": "TSSAddress_",
          "type": "address"
        }
      ],
      "name": "UpdatedTSSAddress",
      "type": "event"
    },
    {
      "anonymous": false,
      "inputs": [
        {
          "indexed": false,
          "internalType": "uint256",
          "name": "zetaFee_",
          "type": "uint256"
        }
      ],
      "name": "UpdatedZetaFee",
      "type": "event"
    },
    {
      "anonymous": false,
      "inputs": [
        {
          "indexed": true,
          "internalType": "contract IERC20",
          "name": "asset",
          "type": "address"
        }
      ],
      "name": "Whitelisted",
      "type": "event"
    },
    {
      "anonymous": false,
      "inputs": [
        {
          "indexed": true,
          "internalType": "address",
          "name": "recipient",
          "type": "address"
        },
        {
          "indexed": true,
          "internalType": "contract IERC20",
          "name": "asset",
          "type": "address"
        },
        {
          "indexed": false,
          "internalType": "uint256",
          "name": "amount",
          "type": "uint256"
        }
      ],
      "name": "Withdrawn",
      "type": "event"
    },
    {
      "inputs": [],
      "name": "TSSAddress",
      "outputs": [
        {
          "internalType": "address",
          "name": "",
          "type": "address"
        }
      ],
      "stateMutability": "view",
      "type": "function"
    },
    {
      "inputs": [],
      "name": "TSSAddressUpdater",
      "outputs": [
        {
          "internalType": "address",
          "name": "",
          "type": "address"
        }
      ],
      "stateMutability": "view",
      "type": "function"
    },
    {
      "inputs": [
        {
          "internalType": "bytes",
          "name": "recipient",
          "type": "bytes"
        },
        {
          "internalType": "contract IERC20",
          "name": "asset",
          "type": "address"
        },
        {
          "internalType": "uint256",
          "name": "amount",
          "type": "uint256"
        },
        {
          "internalType": "bytes",
          "name": "message",
          "type": "bytes"
        }
      ],
      "name": "deposit",
      "outputs": [],
      "stateMutability": "nonpayable",
      "type": "function"
    },
    {
      "inputs": [],
      "name": "pause",
      "outputs": [],
      "stateMutability": "nonpayable",
      "type": "function"
    },
    {
      "inputs": [],
      "name": "paused",
      "outputs": [
        {
          "internalType": "bool",
          "name": "",
          "type": "bool"
        }
      ],
      "stateMutability": "view",
      "type": "function"
    },
    {
      "inputs": [],
      "name": "renounceTSSAddressUpdater",
      "outputs": [],
      "stateMutability": "nonpayable",
      "type": "function"
    },
    {
      "inputs": [],
      "name": "unpause",
      "outputs": [],
      "stateMutability": "nonpayable",
      "type": "function"
    },
    {
      "inputs": [
        {
          "internalType": "contract IERC20",
          "name": "asset",
          "type": "address"
        }
      ],
      "name": "unwhitelist",
      "outputs": [],
      "stateMutability": "nonpayable",
      "type": "function"
    },
    {
      "inputs": [
        {
          "internalType": "address",
          "name": "TSSAddress_",
          "type": "address"
        }
      ],
      "name": "updateTSSAddress",
      "outputs": [],
      "stateMutability": "nonpayable",
      "type": "function"
    },
    {
      "inputs": [
        {
          "internalType": "uint256",
          "name": "zetaFee_",
          "type": "uint256"
        }
      ],
      "name": "updateZetaFee",
      "outputs": [],
      "stateMutability": "nonpayable",
      "type": "function"
    },
    {
      "inputs": [
        {
          "internalType": "contract IERC20",
          "name": "asset",
          "type": "address"
        }
      ],
      "name": "whitelist",
      "outputs": [],
      "stateMutability": "nonpayable",
      "type": "function"
    },
    {
      "inputs": [
        {
          "internalType": "contract IERC20",
          "name": "",
          "type": "address"
        }
      ],
      "name": "whitelisted",
      "outputs": [
        {
          "internalType": "bool",
          "name": "",
          "type": "bool"
        }
      ],
      "stateMutability": "view",
      "type": "function"
    },
    {
      "inputs": [
        {
          "internalType": "address",
          "name": "recipient",
          "type": "address"
        },
        {
          "internalType": "contract IERC20",
          "name": "asset",
          "type": "address"
        },
        {
          "internalType": "uint256",
          "name": "amount",
          "type": "uint256"
        }
      ],
      "name": "withdraw",
      "outputs": [],
      "stateMutability": "nonpayable",
      "type": "function"
    },
    {
      "inputs": [],
      "name": "zeta",
      "outputs": [
        {
          "internalType": "contract IERC20",
          "name": "",
          "type": "address"
        }
      ],
      "stateMutability": "view",
      "type": "function"
    },
    {
      "inputs": [],
      "name": "zetaFee",
      "outputs": [
        {
          "internalType": "uint256",
          "name": "",
          "type": "uint256"
        }
      ],
      "stateMutability": "view",
      "type": "function"
    },
    {
      "inputs": [],
      "name": "zetaMaxFee",
      "outputs": [
        {
          "internalType": "uint256",
          "name": "",
          "type": "uint256"
        }
      ],
      "stateMutability": "view",
      "type": "function"
    }
  ],
  "bytecode": "0x60c06040523480156200001157600080fd5b50604051620020ec380380620020ec83398181016040528101906200003791906200014f565b84600060016101000a81548173ffffffffffffffffffffffffffffffffffffffff021916908373ffffffffffffffffffffffffffffffffffffffff16021790555083600160006101000a81548173ffffffffffffffffffffffffffffffffffffffff021916908373ffffffffffffffffffffffffffffffffffffffff160217905550826002819055508073ffffffffffffffffffffffffffffffffffffffff1660a08173ffffffffffffffffffffffffffffffffffffffff1660601b81525050816080818152505050505050506200027c565b6000815190506200011b816200022e565b92915050565b600081519050620001328162000248565b92915050565b600081519050620001498162000262565b92915050565b600080600080600060a086880312156200016e576200016d62000229565b5b60006200017e888289016200010a565b955050602062000191888289016200010a565b9450506040620001a48882890162000138565b9350506060620001b78882890162000138565b9250506080620001ca8882890162000121565b9150509295509295909350565b6000620001e482620001ff565b9050919050565b6000620001f882620001d7565b9050919050565b600073ffffffffffffffffffffffffffffffffffffffff82169050919050565b6000819050919050565b600080fd5b6200023981620001d7565b81146200024557600080fd5b50565b6200025381620001eb565b81146200025f57600080fd5b50565b6200026d816200021f565b81146200027957600080fd5b50565b60805160a05160601c611e32620002ba60003960008181610dfd01528181610e66015261105a01526000818161042b0152610c6e0152611e326000f3fe608060405234801561001057600080fd5b50600436106101005760003560e01c80639b19251a11610097578063e5408cfa11610066578063e5408cfa1461024d578063e609055e1461026b578063e8f9cb3a14610287578063ed11692b146102a557610100565b80639b19251a146101c9578063d936547e146101e5578063d9caed1214610215578063de2f6c5e1461023157610100565b80637bdaded3116100d35780637bdaded3146101695780638456cb5914610187578063950837aa146101915780639a590427146101ad57610100565b80633f4ba83a1461010557806353ee30a31461010f57806354b61e811461012d5780635c975abb1461014b575b600080fd5b61010d6102af565b005b6101176103cc565b60405161012491906119a0565b60405180910390f35b6101356103f2565b60405161014291906119a0565b60405180910390f35b610153610418565b6040516101609190611a1b565b60405180910390f35b610171610429565b60405161017e9190611b1c565b60405180910390f35b61018f61044d565b005b6101ab60048036038101906101a69190611672565b6105f4565b005b6101c760048036038101906101c291906117c6565b61075c565b005b6101e360048036038101906101de91906117c6565b610881565b005b6101ff60048036038101906101fa91906117c6565b6109a6565b60405161020c9190611a1b565b60405180910390f35b61022f600480360381019061022a919061169f565b6109c6565b005b61024b600480360381019061024691906117f3565b610baa565b005b610255610d07565b6040516102629190611b1c565b60405180910390f35b6102856004803603810190610280919061171f565b610d0d565b005b61028f611058565b60405161029c9190611a7f565b60405180910390f35b6102ad61107c565b005b600160009054906101000a900473ffffffffffffffffffffffffffffffffffffffff1673ffffffffffffffffffffffffffffffffffffffff163373ffffffffffffffffffffffffffffffffffffffff1614610335576040517e611fa600000000000000000000000000000000000000000000000000000000815260040160405180910390fd5b60008054906101000a900460ff16610379576040517f6cd6020100000000000000000000000000000000000000000000000000000000815260040160405180910390fd5b60008060006101000a81548160ff0219169083151502179055507f5db9ee0a495bf2e6ff9c91a7834c1ba4fdd244a5e8aa4e537bd38aeae4b073aa336040516103c291906119a0565b60405180910390a1565b600060019054906101000a900473ffffffffffffffffffffffffffffffffffffffff1681565b600160009054906101000a900473ffffffffffffffffffffffffffffffffffffffff1681565b60008054906101000a900460ff1681565b7f000000000000000000000000000000000000000000000000000000000000000081565b600160009054906101000a900473ffffffffffffffffffffffffffffffffffffffff1673ffffffffffffffffffffffffffffffffffffffff163373ffffffffffffffffffffffffffffffffffffffff16146104d3576040517e611fa600000000000000000000000000000000000000000000000000000000815260040160405180910390fd5b60008054906101000a900460ff1615610518576040517f1309a56300000000000000000000000000000000000000000000000000000000815260040160405180910390fd5b600073ffffffffffffffffffffffffffffffffffffffff16600060019054906101000a900473ffffffffffffffffffffffffffffffffffffffff1673ffffffffffffffffffffffffffffffffffffffff1614156105a1576040517fd92e233d00000000000000000000000000000000000000000000000000000000815260040160405180910390fd5b60016000806101000a81548160ff0219169083151502179055507f62e78cea01bee320cd4e420270b5ea74000d11b0c9f74754ebdbfc544b05a258336040516105ea91906119a0565b60405180910390a1565b600160009054906101000a900473ffffffffffffffffffffffffffffffffffffffff1673ffffffffffffffffffffffffffffffffffffffff163373ffffffffffffffffffffffffffffffffffffffff161461067a576040517e611fa600000000000000000000000000000000000000000000000000000000815260040160405180910390fd5b600073ffffffffffffffffffffffffffffffffffffffff168173ffffffffffffffffffffffffffffffffffffffff1614156106e1576040517fd92e233d00000000000000000000000000000000000000000000000000000000815260040160405180910390fd5b80600060016101000a81548173ffffffffffffffffffffffffffffffffffffffff021916908373ffffffffffffffffffffffffffffffffffffffff1602179055507fcd2958db8285a532edf298cbe1aa28ea3fb5ec82461253f9a8c1477924e299478160405161075191906119a0565b60405180910390a150565b600060019054906101000a900473ffffffffffffffffffffffffffffffffffffffff1673ffffffffffffffffffffffffffffffffffffffff163373ffffffffffffffffffffffffffffffffffffffff16146107e3576040517fddb5de5e00000000000000000000000000000000000000000000000000000000815260040160405180910390fd5b6000600360008373ffffffffffffffffffffffffffffffffffffffff1673ffffffffffffffffffffffffffffffffffffffff16815260200190815260200160002060006101000a81548160ff0219169083151502179055508073ffffffffffffffffffffffffffffffffffffffff167f51085ddf9ebdded84b76e829eb58c4078e4b5bdf97d9a94723f336039da4679160405160405180910390a250565b600060019054906101000a900473ffffffffffffffffffffffffffffffffffffffff1673ffffffffffffffffffffffffffffffffffffffff163373ffffffffffffffffffffffffffffffffffffffff1614610908576040517fddb5de5e00000000000000000000000000000000000000000000000000000000815260040160405180910390fd5b6001600360008373ffffffffffffffffffffffffffffffffffffffff1673ffffffffffffffffffffffffffffffffffffffff16815260200190815260200160002060006101000a81548160ff0219169083151502179055508073ffffffffffffffffffffffffffffffffffffffff167faab7954e9d246b167ef88aeddad35209ca2489d95a8aeb59e288d9b19fae5a5460405160405180910390a250565b60036020528060005260406000206000915054906101000a900460ff1681565b600060019054906101000a900473ffffffffffffffffffffffffffffffffffffffff1673ffffffffffffffffffffffffffffffffffffffff163373ffffffffffffffffffffffffffffffffffffffff1614610a4d576040517fddb5de5e00000000000000000000000000000000000000000000000000000000815260040160405180910390fd5b60008054906101000a900460ff1615610a92576040517f1309a56300000000000000000000000000000000000000000000000000000000815260040160405180910390fd5b600360008373ffffffffffffffffffffffffffffffffffffffff1673ffffffffffffffffffffffffffffffffffffffff16815260200190815260200160002060009054906101000a900460ff16610b15576040517f584a793800000000000000000000000000000000000000000000000000000000815260040160405180910390fd5b610b4083828473ffffffffffffffffffffffffffffffffffffffff166112279092919063ffffffff16565b8173ffffffffffffffffffffffffffffffffffffffff168373ffffffffffffffffffffffffffffffffffffffff167fd1c19fbcd4551a5edfb66d43d2e337c04837afda3482b42bdf569a8fccdae5fb83604051610b9d9190611b1c565b60405180910390a3505050565b600060019054906101000a900473ffffffffffffffffffffffffffffffffffffffff1673ffffffffffffffffffffffffffffffffffffffff163373ffffffffffffffffffffffffffffffffffffffff1614610c31576040517fddb5de5e00000000000000000000000000000000000000000000000000000000815260040160405180910390fd5b6000811415610c6c576040517faf13986d00000000000000000000000000000000000000000000000000000000815260040160405180910390fd5b7f0000000000000000000000000000000000000000000000000000000000000000811115610cc6576040517fc1be451300000000000000000000000000000000000000000000000000000000815260040160405180910390fd5b806002819055507f6d2d8e313fbaf76898bb9fa55e4b52525e49c7d7182d0874f97bd9076e81d52381604051610cfc9190611b1c565b60405180910390a150565b60025481565b60008054906101000a900460ff1615610d52576040517f1309a56300000000000000000000000000000000000000000000000000000000815260040160405180910390fd5b600360008573ffffffffffffffffffffffffffffffffffffffff1673ffffffffffffffffffffffffffffffffffffffff16815260200190815260200160002060009054906101000a900460ff16610dd5576040517f584a793800000000000000000000000000000000000000000000000000000000815260040160405180910390fd5b600060025414158015610e355750600073ffffffffffffffffffffffffffffffffffffffff167f000000000000000000000000000000000000000000000000000000000000000073ffffffffffffffffffffffffffffffffffffffff1614155b15610eac57610eab33600060019054906101000a900473ffffffffffffffffffffffffffffffffffffffff166002547f000000000000000000000000000000000000000000000000000000000000000073ffffffffffffffffffffffffffffffffffffffff166112ad909392919063ffffffff16565b5b60008473ffffffffffffffffffffffffffffffffffffffff166370a08231306040518263ffffffff1660e01b8152600401610ee791906119a0565b60206040518083038186803b158015610eff57600080fd5b505afa158015610f13573d6000803e3d6000fd5b505050506040513d601f19601f82011682018060405250810190610f379190611820565b9050610f663330868873ffffffffffffffffffffffffffffffffffffffff166112ad909392919063ffffffff16565b8473ffffffffffffffffffffffffffffffffffffffff167f1dafa057cc5c3bccb5ad974129a2bccd3c74002d9dfd7062404ba9523b18d6ae8888848973ffffffffffffffffffffffffffffffffffffffff166370a08231306040518263ffffffff1660e01b8152600401610fda91906119a0565b60206040518083038186803b158015610ff257600080fd5b505afa158015611006573d6000803e3d6000fd5b505050506040513d601f19601f8201168201806040525081019061102a9190611820565b6110349190611b7a565b8787604051611047959493929190611a36565b60405180910390a250505050505050565b7f000000000000000000000000000000000000000000000000000000000000000081565b600160009054906101000a900473ffffffffffffffffffffffffffffffffffffffff1673ffffffffffffffffffffffffffffffffffffffff163373ffffffffffffffffffffffffffffffffffffffff1614611102576040517e611fa600000000000000000000000000000000000000000000000000000000815260040160405180910390fd5b600073ffffffffffffffffffffffffffffffffffffffff16600060019054906101000a900473ffffffffffffffffffffffffffffffffffffffff1673ffffffffffffffffffffffffffffffffffffffff16141561118b576040517fd92e233d00000000000000000000000000000000000000000000000000000000815260040160405180910390fd5b600060019054906101000a900473ffffffffffffffffffffffffffffffffffffffff16600160006101000a81548173ffffffffffffffffffffffffffffffffffffffff021916908373ffffffffffffffffffffffffffffffffffffffff1602179055507f39ac266bfc011581be62c138d96e4e8782812013bb66fffb4cd207f4bfee37773360405161121d91906119a0565b60405180910390a1565b6112a88363a9059cbb60e01b84846040516024016112469291906119f2565b604051602081830303815290604052907bffffffffffffffffffffffffffffffffffffffffffffffffffffffff19166020820180517bffffffffffffffffffffffffffffffffffffffffffffffffffffffff8381831617835250505050611336565b505050565b611330846323b872dd60e01b8585856040516024016112ce939291906119bb565b604051602081830303815290604052907bffffffffffffffffffffffffffffffffffffffffffffffffffffffff19166020820180517bffffffffffffffffffffffffffffffffffffffffffffffffffffffff8381831617835250505050611336565b50505050565b6000611398826040518060400160405280602081526020017f5361666545524332303a206c6f772d6c6576656c2063616c6c206661696c65648152508573ffffffffffffffffffffffffffffffffffffffff166113fd9092919063ffffffff16565b90506000815111156113f857808060200190518101906113b891906116f2565b6113f7576040517f08c379a00000000000000000000000000000000000000000000000000000000081526004016113ee90611afc565b60405180910390fd5b5b505050565b606061140c8484600085611415565b90509392505050565b60608247101561145a576040517f08c379a000000000000000000000000000000000000000000000000000000000815260040161145190611abc565b60405180910390fd5b61146385611529565b6114a2576040517f08c379a000000000000000000000000000000000000000000000000000000000815260040161149990611adc565b60405180910390fd5b6000808673ffffffffffffffffffffffffffffffffffffffff1685876040516114cb9190611989565b60006040518083038185875af1925050503d8060008114611508576040519150601f19603f3d011682016040523d82523d6000602084013e61150d565b606091505b509150915061151d82828661154c565b92505050949350505050565b6000808273ffffffffffffffffffffffffffffffffffffffff163b119050919050565b6060831561155c578290506115ac565b60008351111561156f5782518084602001fd5b816040517f08c379a00000000000000000000000000000000000000000000000000000000081526004016115a39190611a9a565b60405180910390fd5b9392505050565b6000813590506115c281611da0565b92915050565b6000815190506115d781611db7565b92915050565b60008083601f8401126115f3576115f2611cb4565b5b8235905067ffffffffffffffff8111156116105761160f611caf565b5b60208301915083600182028301111561162c5761162b611cb9565b5b9250929050565b60008135905061164281611dce565b92915050565b60008135905061165781611de5565b92915050565b60008151905061166c81611de5565b92915050565b60006020828403121561168857611687611cc3565b5b6000611696848285016115b3565b91505092915050565b6000806000606084860312156116b8576116b7611cc3565b5b60006116c6868287016115b3565b93505060206116d786828701611633565b92505060406116e886828701611648565b9150509250925092565b60006020828403121561170857611707611cc3565b5b6000611716848285016115c8565b91505092915050565b6000806000806000806080878903121561173c5761173b611cc3565b5b600087013567ffffffffffffffff81111561175a57611759611cbe565b5b61176689828a016115dd565b9650965050602061177989828a01611633565b945050604061178a89828a01611648565b935050606087013567ffffffffffffffff8111156117ab576117aa611cbe565b5b6117b789828a016115dd565b92509250509295509295509295565b6000602082840312156117dc576117db611cc3565b5b60006117ea84828501611633565b91505092915050565b60006020828403121561180957611808611cc3565b5b600061181784828501611648565b91505092915050565b60006020828403121561183657611835611cc3565b5b60006118448482850161165d565b91505092915050565b61185681611bae565b82525050565b61186581611bc0565b82525050565b60006118778385611b4d565b9350611884838584611c3e565b61188d83611cc8565b840190509392505050565b60006118a382611b37565b6118ad8185611b5e565b93506118bd818560208601611c4d565b80840191505092915050565b6118d281611c08565b82525050565b60006118e382611b42565b6118ed8185611b69565b93506118fd818560208601611c4d565b61190681611cc8565b840191505092915050565b600061191e602683611b69565b915061192982611cd9565b604082019050919050565b6000611941601d83611b69565b915061194c82611d28565b602082019050919050565b6000611964602a83611b69565b915061196f82611d51565b604082019050919050565b61198381611bfe565b82525050565b60006119958284611898565b915081905092915050565b60006020820190506119b5600083018461184d565b92915050565b60006060820190506119d0600083018661184d565b6119dd602083018561184d565b6119ea604083018461197a565b949350505050565b6000604082019050611a07600083018561184d565b611a14602083018461197a565b9392505050565b6000602082019050611a30600083018461185c565b92915050565b60006060820190508181036000830152611a5181878961186b565b9050611a60602083018661197a565b8181036040830152611a7381848661186b565b90509695505050505050565b6000602082019050611a9460008301846118c9565b92915050565b60006020820190508181036000830152611ab481846118d8565b905092915050565b60006020820190508181036000830152611ad581611911565b9050919050565b60006020820190508181036000830152611af581611934565b9050919050565b60006020820190508181036000830152611b1581611957565b9050919050565b6000602082019050611b31600083018461197a565b92915050565b600081519050919050565b600081519050919050565b600082825260208201905092915050565b600081905092915050565b600082825260208201905092915050565b6000611b8582611bfe565b9150611b9083611bfe565b925082821015611ba357611ba2611c80565b5b828203905092915050565b6000611bb982611bde565b9050919050565b60008115159050919050565b6000611bd782611bae565b9050919050565b600073ffffffffffffffffffffffffffffffffffffffff82169050919050565b6000819050919050565b6000611c1382611c1a565b9050919050565b6000611c2582611c2c565b9050919050565b6000611c3782611bde565b9050919050565b82818337600083830152505050565b60005b83811015611c6b578082015181840152602081019050611c50565b83811115611c7a576000848401525b50505050565b7f4e487b7100000000000000000000000000000000000000000000000000000000600052601160045260246000fd5b600080fd5b600080fd5b600080fd5b600080fd5b600080fd5b6000601f19601f8301169050919050565b7f416464726573733a20696e73756666696369656e742062616c616e636520666f60008201527f722063616c6c0000000000000000000000000000000000000000000000000000602082015250565b7f416464726573733a2063616c6c20746f206e6f6e2d636f6e7472616374000000600082015250565b7f5361666545524332303a204552433230206f7065726174696f6e20646964206e60008201527f6f74207375636365656400000000000000000000000000000000000000000000602082015250565b611da981611bae565b8114611db457600080fd5b50565b611dc081611bc0565b8114611dcb57600080fd5b50565b611dd781611bcc565b8114611de257600080fd5b50565b611dee81611bfe565b8114611df957600080fd5b5056fea264697066735822122066efb9fd16e884e75d91e03ae07bf9e3294e75d61f4476555c588b2c80047ee664736f6c63430008070033",
  "linkReferences": {},
  "deployedLinkReferences": {}
}